{
	"contracts/TournamentResults.sol": {
		"tournamentResults": {
			"abi": [
				{
					"inputs": [],
					"stateMutability": "nonpayable",
					"type": "constructor"
				},
				{
					"inputs": [
						{
							"internalType": "address",
							"name": "owner",
							"type": "address"
						}
					],
					"name": "OwnableInvalidOwner",
					"type": "error"
				},
				{
					"inputs": [
						{
							"internalType": "address",
							"name": "account",
							"type": "address"
						}
					],
					"name": "OwnableUnauthorizedAccount",
					"type": "error"
				},
				{
					"anonymous": false,
					"inputs": [
						{
							"indexed": true,
							"internalType": "address",
							"name": "previousOwner",
							"type": "address"
						},
						{
							"indexed": true,
							"internalType": "address",
							"name": "newOwner",
							"type": "address"
						}
					],
					"name": "OwnershipTransferred",
					"type": "event"
				},
				{
					"inputs": [
						{
							"internalType": "uint256",
							"name": "id",
							"type": "uint256"
						}
					],
					"name": "getTournamentDetails",
					"outputs": [
						{
							"components": [
								{
									"internalType": "uint256",
									"name": "id",
									"type": "uint256"
								},
								{
									"internalType": "string",
									"name": "player1",
									"type": "string"
								},
								{
									"internalType": "string",
									"name": "player2",
									"type": "string"
								},
								{
									"internalType": "uint256",
									"name": "pointsPlayer1",
									"type": "uint256"
								},
								{
									"internalType": "uint256",
									"name": "pointsPlayer2",
									"type": "uint256"
								}
							],
							"internalType": "struct tournamentResults.tournamentDetails",
							"name": "",
							"type": "tuple"
						}
					],
					"stateMutability": "view",
					"type": "function"
				},
				{
					"inputs": [],
					"name": "owner",
					"outputs": [
						{
							"internalType": "address",
							"name": "",
							"type": "address"
						}
					],
					"stateMutability": "view",
					"type": "function"
				},
				{
					"inputs": [],
					"name": "renounceOwnership",
					"outputs": [],
					"stateMutability": "nonpayable",
					"type": "function"
				},
				{
					"inputs": [
						{
							"internalType": "uint256",
							"name": "id",
							"type": "uint256"
						},
						{
							"internalType": "string",
							"name": "player1",
							"type": "string"
						},
						{
							"internalType": "string",
							"name": "player2",
							"type": "string"
						},
						{
							"internalType": "uint256",
							"name": "pointsTeamA",
							"type": "uint256"
						},
						{
							"internalType": "uint256",
							"name": "pointsTeamB",
							"type": "uint256"
						}
					],
					"name": "storeTournamentDetails",
					"outputs": [],
					"stateMutability": "nonpayable",
					"type": "function"
				},
				{
					"inputs": [
						{
							"internalType": "uint256",
							"name": "",
							"type": "uint256"
						}
					],
					"name": "tournamentsMap",
					"outputs": [
						{
							"internalType": "uint256",
							"name": "id",
							"type": "uint256"
						},
						{
							"internalType": "string",
							"name": "player1",
							"type": "string"
						},
						{
							"internalType": "string",
							"name": "player2",
							"type": "string"
						},
						{
							"internalType": "uint256",
							"name": "pointsPlayer1",
							"type": "uint256"
						},
						{
							"internalType": "uint256",
							"name": "pointsPlayer2",
							"type": "uint256"
						}
					],
					"stateMutability": "view",
					"type": "function"
				},
				{
					"inputs": [
						{
							"internalType": "address",
							"name": "newOwner",
							"type": "address"
						}
					],
					"name": "transferOwnership",
					"outputs": [],
					"stateMutability": "nonpayable",
					"type": "function"
				}
			],
			"devdoc": {
				"errors": {
					"OwnableInvalidOwner(address)": [
						{
							"details": "The owner is not a valid owner account. (eg. `address(0)`)"
						}
					],
					"OwnableUnauthorizedAccount(address)": [
						{
							"details": "The caller account is not authorized to perform an operation."
						}
					]
				},
				"kind": "dev",
				"methods": {
					"owner()": {
						"details": "Returns the address of the current owner."
					},
					"renounceOwnership()": {
						"details": "Leaves the contract without owner. It will not be possible to call `onlyOwner` functions. Can only be called by the current owner. NOTE: Renouncing ownership will leave the contract without an owner, thereby disabling any functionality that is only available to the owner."
					},
					"transferOwnership(address)": {
						"details": "Transfers ownership of the contract to a new account (`newOwner`). Can only be called by the current owner."
					}
				},
				"version": 1
			},
			"evm": {
				"assembly": "    /* \"contracts/TournamentResults.sol\":117:1104  contract tournamentResults is Ownable {... */\n  mstore(0x40, 0x80)\n    /* \"contracts/TournamentResults.sol\":408:541  constructor() Ownable(msg.sender) {... */\n  callvalue\n  dup1\n  iszero\n  tag_1\n  jumpi\n  revert(0x00, 0x00)\ntag_1:\n  pop\n    /* \"contracts/TournamentResults.sol\":430:440  msg.sender */\n  caller\n    /* \"@openzeppelin/contracts/access/Ownable.sol\":1297:1298  0 */\n  0x00\n    /* \"@openzeppelin/contracts/access/Ownable.sol\":1273:1299  initialOwner == address(0) */\n  0xffffffffffffffffffffffffffffffffffffffff\n  and\n    /* \"@openzeppelin/contracts/access/Ownable.sol\":1273:1285  initialOwner */\n  dup2\n    /* \"@openzeppelin/contracts/access/Ownable.sol\":1273:1299  initialOwner == address(0) */\n  0xffffffffffffffffffffffffffffffffffffffff\n  and\n  sub\n    /* \"@openzeppelin/contracts/access/Ownable.sol\":1269:1364  if (initialOwner == address(0)) {... */\n  tag_5\n  jumpi\n    /* \"@openzeppelin/contracts/access/Ownable.sol\":1350:1351  0 */\n  0x00\n    /* \"@openzeppelin/contracts/access/Ownable.sol\":1322:1353  OwnableInvalidOwner(address(0)) */\n  mload(0x40)\n  0x1e4fbdf700000000000000000000000000000000000000000000000000000000\n  dup2\n  mstore\n  0x04\n  add\n  tag_6\n  swap2\n  swap1\n  tag_7\n  jump\t// in\ntag_6:\n  mload(0x40)\n  dup1\n  swap2\n  sub\n  swap1\n  revert\n    /* \"@openzeppelin/contracts/access/Ownable.sol\":1269:1364  if (initialOwner == address(0)) {... */\ntag_5:\n    /* \"@openzeppelin/contracts/access/Ownable.sol\":1373:1405  _transferOwnership(initialOwner) */\n  tag_8\n    /* \"@openzeppelin/contracts/access/Ownable.sol\":1392:1404  initialOwner */\n  dup2\n    /* \"@openzeppelin/contracts/access/Ownable.sol\":1373:1391  _transferOwnership */\n  shl(0x20, tag_9)\n    /* \"@openzeppelin/contracts/access/Ownable.sol\":1373:1405  _transferOwnership(initialOwner) */\n  0x20\n  shr\n  jump\t// in\ntag_8:\n    /* \"@openzeppelin/contracts/access/Ownable.sol\":1225:1412  constructor(address initialOwner) {... */\n  pop\n    /* \"contracts/TournamentResults.sol\":117:1104  contract tournamentResults is Ownable {... */\n  jump(tag_11)\n    /* \"@openzeppelin/contracts/access/Ownable.sol\":2912:3099  function _transferOwnership(address newOwner) internal virtual {... */\ntag_9:\n    /* \"@openzeppelin/contracts/access/Ownable.sol\":2985:3001  address oldOwner */\n  0x00\n    /* \"@openzeppelin/contracts/access/Ownable.sol\":3004:3010  _owner */\n  0x00\n  0x00\n  swap1\n  sload\n  swap1\n  0x0100\n  exp\n  swap1\n  div\n  0xffffffffffffffffffffffffffffffffffffffff\n  and\n    /* \"@openzeppelin/contracts/access/Ownable.sol\":2985:3010  address oldOwner = _owner */\n  swap1\n  pop\n    /* \"@openzeppelin/contracts/access/Ownable.sol\":3029:3037  newOwner */\n  dup2\n    /* \"@openzeppelin/contracts/access/Ownable.sol\":3020:3026  _owner */\n  0x00\n  0x00\n    /* \"@openzeppelin/contracts/access/Ownable.sol\":3020:3037  _owner = newOwner */\n  0x0100\n  exp\n  dup2\n  sload\n  dup2\n  0xffffffffffffffffffffffffffffffffffffffff\n  mul\n  not\n  and\n  swap1\n  dup4\n  0xffffffffffffffffffffffffffffffffffffffff\n  and\n  mul\n  or\n  swap1\n  sstore\n  pop\n    /* \"@openzeppelin/contracts/access/Ownable.sol\":3083:3091  newOwner */\n  dup2\n    /* \"@openzeppelin/contracts/access/Ownable.sol\":3052:3092  OwnershipTransferred(oldOwner, newOwner) */\n  0xffffffffffffffffffffffffffffffffffffffff\n  and\n    /* \"@openzeppelin/contracts/access/Ownable.sol\":3073:3081  oldOwner */\n  dup2\n    /* \"@openzeppelin/contracts/access/Ownable.sol\":3052:3092  OwnershipTransferred(oldOwner, newOwner) */\n  0xffffffffffffffffffffffffffffffffffffffff\n  and\n  0x8be0079c531659141344cd1fd0a4f28419497f9722a3daafe3b4186f6b6457e0\n  mload(0x40)\n  mload(0x40)\n  dup1\n  swap2\n  sub\n  swap1\n  log3\n    /* \"@openzeppelin/contracts/access/Ownable.sol\":2975:3099  {... */\n  pop\n    /* \"@openzeppelin/contracts/access/Ownable.sol\":2912:3099  function _transferOwnership(address newOwner) internal virtual {... */\n  pop\n  jump\t// out\n    /* \"#utility.yul\":7:133   */\ntag_13:\n    /* \"#utility.yul\":44:51   */\n  0x00\n    /* \"#utility.yul\":84:126   */\n  0xffffffffffffffffffffffffffffffffffffffff\n    /* \"#utility.yul\":77:82   */\n  dup3\n    /* \"#utility.yul\":73:127   */\n  and\n    /* \"#utility.yul\":62:127   */\n  swap1\n  pop\n    /* \"#utility.yul\":7:133   */\n  swap2\n  swap1\n  pop\n  jump\t// out\n    /* \"#utility.yul\":139:235   */\ntag_14:\n    /* \"#utility.yul\":176:183   */\n  0x00\n    /* \"#utility.yul\":205:229   */\n  tag_19\n    /* \"#utility.yul\":223:228   */\n  dup3\n    /* \"#utility.yul\":205:229   */\n  tag_13\n  jump\t// in\ntag_19:\n    /* \"#utility.yul\":194:229   */\n  swap1\n  pop\n    /* \"#utility.yul\":139:235   */\n  swap2\n  swap1\n  pop\n  jump\t// out\n    /* \"#utility.yul\":241:359   */\ntag_15:\n    /* \"#utility.yul\":328:352   */\n  tag_21\n    /* \"#utility.yul\":346:351   */\n  dup2\n    /* \"#utility.yul\":328:352   */\n  tag_14\n  jump\t// in\ntag_21:\n    /* \"#utility.yul\":323:326   */\n  dup3\n    /* \"#utility.yul\":316:353   */\n  mstore\n    /* \"#utility.yul\":241:359   */\n  pop\n  pop\n  jump\t// out\n    /* \"#utility.yul\":365:587   */\ntag_7:\n    /* \"#utility.yul\":458:462   */\n  0x00\n    /* \"#utility.yul\":496:498   */\n  0x20\n    /* \"#utility.yul\":485:494   */\n  dup3\n    /* \"#utility.yul\":481:499   */\n  add\n    /* \"#utility.yul\":473:499   */\n  swap1\n  pop\n    /* \"#utility.yul\":509:580   */\n  tag_23\n    /* \"#utility.yul\":577:578   */\n  0x00\n    /* \"#utility.yul\":566:575   */\n  dup4\n    /* \"#utility.yul\":562:579   */\n  add\n    /* \"#utility.yul\":553:559   */\n  dup5\n    /* \"#utility.yul\":509:580   */\n  tag_15\n  jump\t// in\ntag_23:\n    /* \"#utility.yul\":365:587   */\n  swap3\n  swap2\n  pop\n  pop\n  jump\t// out\n    /* \"contracts/TournamentResults.sol\":117:1104  contract tournamentResults is Ownable {... */\ntag_11:\n  dataSize(sub_0)\n  dup1\n  dataOffset(sub_0)\n  0x00\n  codecopy\n  0x00\n  return\nstop\n\nsub_0: assembly {\n        /* \"contracts/TournamentResults.sol\":117:1104  contract tournamentResults is Ownable {... */\n      mstore(0x40, 0x80)\n      callvalue\n      dup1\n      iszero\n      tag_1\n      jumpi\n      revert(0x00, 0x00)\n    tag_1:\n      pop\n      jumpi(tag_2, lt(calldatasize, 0x04))\n      shr(0xe0, calldataload(0x00))\n      dup1\n      0x216655e2\n      eq\n      tag_3\n      jumpi\n      dup1\n      0x505858de\n      eq\n      tag_4\n      jumpi\n      dup1\n      0x6825060c\n      eq\n      tag_5\n      jumpi\n      dup1\n      0x715018a6\n      eq\n      tag_6\n      jumpi\n      dup1\n      0x8da5cb5b\n      eq\n      tag_7\n      jumpi\n      dup1\n      0xf2fde38b\n      eq\n      tag_8\n      jumpi\n    tag_2:\n      revert(0x00, 0x00)\n        /* \"contracts/TournamentResults.sol\":961:1101  function getTournamentDetails(uint256 id) external view returns (tournamentDetails memory)... */\n    tag_3:\n      tag_9\n      0x04\n      dup1\n      calldatasize\n      sub\n      dup2\n      add\n      swap1\n      tag_10\n      swap2\n      swap1\n      tag_11\n      jump\t// in\n    tag_10:\n      tag_12\n      jump\t// in\n    tag_9:\n      mload(0x40)\n      tag_13\n      swap2\n      swap1\n      tag_14\n      jump\t// in\n    tag_13:\n      mload(0x40)\n      dup1\n      swap2\n      sub\n      swap1\n      return\n        /* \"contracts/TournamentResults.sol\":340:399  mapping(uint256 => tournamentDetails) public tournamentsMap */\n    tag_4:\n      tag_15\n      0x04\n      dup1\n      calldatasize\n      sub\n      dup2\n      add\n      swap1\n      tag_16\n      swap2\n      swap1\n      tag_11\n      jump\t// in\n    tag_16:\n      tag_17\n      jump\t// in\n    tag_15:\n      mload(0x40)\n      tag_18\n      swap6\n      swap5\n      swap4\n      swap3\n      swap2\n      swap1\n      tag_19\n      jump\t// in\n    tag_18:\n      mload(0x40)\n      dup1\n      swap2\n      sub\n      swap1\n      return\n        /* \"contracts/TournamentResults.sol\":549:953  function storeTournamentDetails(uint256 id, string memory player1, string memory player2 , uint256 pointsTeamA, uint256 pointsTeamB ) public onlyOwner {... */\n    tag_5:\n      tag_20\n      0x04\n      dup1\n      calldatasize\n      sub\n      dup2\n      add\n      swap1\n      tag_21\n      swap2\n      swap1\n      tag_22\n      jump\t// in\n    tag_21:\n      tag_23\n      jump\t// in\n    tag_20:\n      stop\n        /* \"@openzeppelin/contracts/access/Ownable.sol\":2293:2394  function renounceOwnership() public virtual onlyOwner {... */\n    tag_6:\n      tag_24\n      tag_25\n      jump\t// in\n    tag_24:\n      stop\n        /* \"@openzeppelin/contracts/access/Ownable.sol\":1638:1723  function owner() public view virtual returns (address) {... */\n    tag_7:\n      tag_26\n      tag_27\n      jump\t// in\n    tag_26:\n      mload(0x40)\n      tag_28\n      swap2\n      swap1\n      tag_29\n      jump\t// in\n    tag_28:\n      mload(0x40)\n      dup1\n      swap2\n      sub\n      swap1\n      return\n        /* \"@openzeppelin/contracts/access/Ownable.sol\":2543:2758  function transferOwnership(address newOwner) public virtual onlyOwner {... */\n    tag_8:\n      tag_30\n      0x04\n      dup1\n      calldatasize\n      sub\n      dup2\n      add\n      swap1\n      tag_31\n      swap2\n      swap1\n      tag_32\n      jump\t// in\n    tag_31:\n      tag_33\n      jump\t// in\n    tag_30:\n      stop\n        /* \"contracts/TournamentResults.sol\":961:1101  function getTournamentDetails(uint256 id) external view returns (tournamentDetails memory)... */\n    tag_12:\n        /* \"contracts/TournamentResults.sol\":1026:1050  tournamentDetails memory */\n      tag_34\n      tag_35\n      jump\t// in\n    tag_34:\n        /* \"contracts/TournamentResults.sol\":1075:1089  tournamentsMap */\n      0x01\n        /* \"contracts/TournamentResults.sol\":1075:1093  tournamentsMap[id] */\n      0x00\n        /* \"contracts/TournamentResults.sol\":1090:1092  id */\n      dup4\n        /* \"contracts/TournamentResults.sol\":1075:1093  tournamentsMap[id] */\n      dup2\n      mstore\n      0x20\n      add\n      swap1\n      dup2\n      mstore\n      0x20\n      add\n      0x00\n      keccak256\n        /* \"contracts/TournamentResults.sol\":1068:1093  return tournamentsMap[id] */\n      mload(0x40)\n      dup1\n      0xa0\n      add\n      0x40\n      mstore\n      swap1\n      dup2\n      0x00\n      dup3\n      add\n      sload\n      dup2\n      mstore\n      0x20\n      add\n      0x01\n      dup3\n      add\n      dup1\n      sload\n      tag_37\n      swap1\n      tag_38\n      jump\t// in\n    tag_37:\n      dup1\n      0x1f\n      add\n      0x20\n      dup1\n      swap2\n      div\n      mul\n      0x20\n      add\n      mload(0x40)\n      swap1\n      dup2\n      add\n      0x40\n      mstore\n      dup1\n      swap3\n      swap2\n      swap1\n      dup2\n      dup2\n      mstore\n      0x20\n      add\n      dup3\n      dup1\n      sload\n      tag_39\n      swap1\n      tag_38\n      jump\t// in\n    tag_39:\n      dup1\n      iszero\n      tag_40\n      jumpi\n      dup1\n      0x1f\n      lt\n      tag_41\n      jumpi\n      0x0100\n      dup1\n      dup4\n      sload\n      div\n      mul\n      dup4\n      mstore\n      swap2\n      0x20\n      add\n      swap2\n      jump(tag_40)\n    tag_41:\n      dup3\n      add\n      swap2\n      swap1\n      0x00\n      mstore\n      keccak256(0x00, 0x20)\n      swap1\n    tag_42:\n      dup2\n      sload\n      dup2\n      mstore\n      swap1\n      0x01\n      add\n      swap1\n      0x20\n      add\n      dup1\n      dup4\n      gt\n      tag_42\n      jumpi\n      dup3\n      swap1\n      sub\n      0x1f\n      and\n      dup3\n      add\n      swap2\n    tag_40:\n      pop\n      pop\n      pop\n      pop\n      pop\n      dup2\n      mstore\n      0x20\n      add\n      0x02\n      dup3\n      add\n      dup1\n      sload\n      tag_43\n      swap1\n      tag_38\n      jump\t// in\n    tag_43:\n      dup1\n      0x1f\n      add\n      0x20\n      dup1\n      swap2\n      div\n      mul\n      0x20\n      add\n      mload(0x40)\n      swap1\n      dup2\n      add\n      0x40\n      mstore\n      dup1\n      swap3\n      swap2\n      swap1\n      dup2\n      dup2\n      mstore\n      0x20\n      add\n      dup3\n      dup1\n      sload\n      tag_44\n      swap1\n      tag_38\n      jump\t// in\n    tag_44:\n      dup1\n      iszero\n      tag_45\n      jumpi\n      dup1\n      0x1f\n      lt\n      tag_46\n      jumpi\n      0x0100\n      dup1\n      dup4\n      sload\n      div\n      mul\n      dup4\n      mstore\n      swap2\n      0x20\n      add\n      swap2\n      jump(tag_45)\n    tag_46:\n      dup3\n      add\n      swap2\n      swap1\n      0x00\n      mstore\n      keccak256(0x00, 0x20)\n      swap1\n    tag_47:\n      dup2\n      sload\n      dup2\n      mstore\n      swap1\n      0x01\n      add\n      swap1\n      0x20\n      add\n      dup1\n      dup4\n      gt\n      tag_47\n      jumpi\n      dup3\n      swap1\n      sub\n      0x1f\n      and\n      dup3\n      add\n      swap2\n    tag_45:\n      pop\n      pop\n      pop\n      pop\n      pop\n      dup2\n      mstore\n      0x20\n      add\n      0x03\n      dup3\n      add\n      sload\n      dup2\n      mstore\n      0x20\n      add\n      0x04\n      dup3\n      add\n      sload\n      dup2\n      mstore\n      pop\n      pop\n      swap1\n      pop\n        /* \"contracts/TournamentResults.sol\":961:1101  function getTournamentDetails(uint256 id) external view returns (tournamentDetails memory)... */\n      swap2\n      swap1\n      pop\n      jump\t// out\n        /* \"contracts/TournamentResults.sol\":340:399  mapping(uint256 => tournamentDetails) public tournamentsMap */\n    tag_17:\n      mstore(0x20, 0x01)\n      dup1\n      0x00\n      mstore\n      keccak256(0x00, 0x40)\n      0x00\n      swap2\n      pop\n      swap1\n      pop\n      dup1\n      0x00\n      add\n      sload\n      swap1\n      dup1\n      0x01\n      add\n      dup1\n      sload\n      tag_48\n      swap1\n      tag_38\n      jump\t// in\n    tag_48:\n      dup1\n      0x1f\n      add\n      0x20\n      dup1\n      swap2\n      div\n      mul\n      0x20\n      add\n      mload(0x40)\n      swap1\n      dup2\n      add\n      0x40\n      mstore\n      dup1\n      swap3\n      swap2\n      swap1\n      dup2\n      dup2\n      mstore\n      0x20\n      add\n      dup3\n      dup1\n      sload\n      tag_49\n      swap1\n      tag_38\n      jump\t// in\n    tag_49:\n      dup1\n      iszero\n      tag_50\n      jumpi\n      dup1\n      0x1f\n      lt\n      tag_51\n      jumpi\n      0x0100\n      dup1\n      dup4\n      sload\n      div\n      mul\n      dup4\n      mstore\n      swap2\n      0x20\n      add\n      swap2\n      jump(tag_50)\n    tag_51:\n      dup3\n      add\n      swap2\n      swap1\n      0x00\n      mstore\n      keccak256(0x00, 0x20)\n      swap1\n    tag_52:\n      dup2\n      sload\n      dup2\n      mstore\n      swap1\n      0x01\n      add\n      swap1\n      0x20\n      add\n      dup1\n      dup4\n      gt\n      tag_52\n      jumpi\n      dup3\n      swap1\n      sub\n      0x1f\n      and\n      dup3\n      add\n      swap2\n    tag_50:\n      pop\n      pop\n      pop\n      pop\n      pop\n      swap1\n      dup1\n      0x02\n      add\n      dup1\n      sload\n      tag_53\n      swap1\n      tag_38\n      jump\t// in\n    tag_53:\n      dup1\n      0x1f\n      add\n      0x20\n      dup1\n      swap2\n      div\n      mul\n      0x20\n      add\n      mload(0x40)\n      swap1\n      dup2\n      add\n      0x40\n      mstore\n      dup1\n      swap3\n      swap2\n      swap1\n      dup2\n      dup2\n      mstore\n      0x20\n      add\n      dup3\n      dup1\n      sload\n      tag_54\n      swap1\n      tag_38\n      jump\t// in\n    tag_54:\n      dup1\n      iszero\n      tag_55\n      jumpi\n      dup1\n      0x1f\n      lt\n      tag_56\n      jumpi\n      0x0100\n      dup1\n      dup4\n      sload\n      div\n      mul\n      dup4\n      mstore\n      swap2\n      0x20\n      add\n      swap2\n      jump(tag_55)\n    tag_56:\n      dup3\n      add\n      swap2\n      swap1\n      0x00\n      mstore\n      keccak256(0x00, 0x20)\n      swap1\n    tag_57:\n      dup2\n      sload\n      dup2\n      mstore\n      swap1\n      0x01\n      add\n      swap1\n      0x20\n      add\n      dup1\n      dup4\n      gt\n      tag_57\n      jumpi\n      dup3\n      swap1\n      sub\n      0x1f\n      and\n      dup3\n      add\n      swap2\n    tag_55:\n      pop\n      pop\n      pop\n      pop\n      pop\n      swap1\n      dup1\n      0x03\n      add\n      sload\n      swap1\n      dup1\n      0x04\n      add\n      sload\n      swap1\n      pop\n      dup6\n      jump\t// out\n        /* \"contracts/TournamentResults.sol\":549:953  function storeTournamentDetails(uint256 id, string memory player1, string memory player2 , uint256 pointsTeamA, uint256 pointsTeamB ) public onlyOwner {... */\n    tag_23:\n        /* \"@openzeppelin/contracts/access/Ownable.sol\":1531:1544  _checkOwner() */\n      tag_59\n        /* \"@openzeppelin/contracts/access/Ownable.sol\":1531:1542  _checkOwner */\n      tag_60\n        /* \"@openzeppelin/contracts/access/Ownable.sol\":1531:1544  _checkOwner() */\n      jump\t// in\n    tag_59:\n        /* \"contracts/TournamentResults.sol\":735:737  id */\n      dup5\n        /* \"contracts/TournamentResults.sol\":711:725  tournamentsMap */\n      0x01\n        /* \"contracts/TournamentResults.sol\":711:729  tournamentsMap[id] */\n      0x00\n        /* \"contracts/TournamentResults.sol\":726:728  id */\n      dup8\n        /* \"contracts/TournamentResults.sol\":711:729  tournamentsMap[id] */\n      dup2\n      mstore\n      0x20\n      add\n      swap1\n      dup2\n      mstore\n      0x20\n      add\n      0x00\n      keccak256\n        /* \"contracts/TournamentResults.sol\":711:732  tournamentsMap[id].id */\n      0x00\n      add\n        /* \"contracts/TournamentResults.sol\":711:737  tournamentsMap[id].id = id */\n      dup2\n      swap1\n      sstore\n      pop\n        /* \"contracts/TournamentResults.sol\":777:784  player1 */\n      dup4\n        /* \"contracts/TournamentResults.sol\":748:762  tournamentsMap */\n      0x01\n        /* \"contracts/TournamentResults.sol\":748:766  tournamentsMap[id] */\n      0x00\n        /* \"contracts/TournamentResults.sol\":763:765  id */\n      dup8\n        /* \"contracts/TournamentResults.sol\":748:766  tournamentsMap[id] */\n      dup2\n      mstore\n      0x20\n      add\n      swap1\n      dup2\n      mstore\n      0x20\n      add\n      0x00\n      keccak256\n        /* \"contracts/TournamentResults.sol\":748:774  tournamentsMap[id].player1 */\n      0x01\n      add\n        /* \"contracts/TournamentResults.sol\":748:784  tournamentsMap[id].player1 = player1 */\n      swap1\n      dup2\n      tag_62\n      swap2\n      swap1\n      tag_63\n      jump\t// in\n    tag_62:\n      pop\n        /* \"contracts/TournamentResults.sol\":824:831  player2 */\n      dup3\n        /* \"contracts/TournamentResults.sol\":795:809  tournamentsMap */\n      0x01\n        /* \"contracts/TournamentResults.sol\":795:813  tournamentsMap[id] */\n      0x00\n        /* \"contracts/TournamentResults.sol\":810:812  id */\n      dup8\n        /* \"contracts/TournamentResults.sol\":795:813  tournamentsMap[id] */\n      dup2\n      mstore\n      0x20\n      add\n      swap1\n      dup2\n      mstore\n      0x20\n      add\n      0x00\n      keccak256\n        /* \"contracts/TournamentResults.sol\":795:821  tournamentsMap[id].player2 */\n      0x02\n      add\n        /* \"contracts/TournamentResults.sol\":795:831  tournamentsMap[id].player2 = player2 */\n      swap1\n      dup2\n      tag_64\n      swap2\n      swap1\n      tag_63\n      jump\t// in\n    tag_64:\n      pop\n        /* \"contracts/TournamentResults.sol\":877:888  pointsTeamA */\n      dup2\n        /* \"contracts/TournamentResults.sol\":842:856  tournamentsMap */\n      0x01\n        /* \"contracts/TournamentResults.sol\":842:860  tournamentsMap[id] */\n      0x00\n        /* \"contracts/TournamentResults.sol\":857:859  id */\n      dup8\n        /* \"contracts/TournamentResults.sol\":842:860  tournamentsMap[id] */\n      dup2\n      mstore\n      0x20\n      add\n      swap1\n      dup2\n      mstore\n      0x20\n      add\n      0x00\n      keccak256\n        /* \"contracts/TournamentResults.sol\":842:874  tournamentsMap[id].pointsPlayer1 */\n      0x03\n      add\n        /* \"contracts/TournamentResults.sol\":842:888  tournamentsMap[id].pointsPlayer1 = pointsTeamA */\n      dup2\n      swap1\n      sstore\n      pop\n        /* \"contracts/TournamentResults.sol\":934:945  pointsTeamB */\n      dup1\n        /* \"contracts/TournamentResults.sol\":899:913  tournamentsMap */\n      0x01\n        /* \"contracts/TournamentResults.sol\":899:917  tournamentsMap[id] */\n      0x00\n        /* \"contracts/TournamentResults.sol\":914:916  id */\n      dup8\n        /* \"contracts/TournamentResults.sol\":899:917  tournamentsMap[id] */\n      dup2\n      mstore\n      0x20\n      add\n      swap1\n      dup2\n      mstore\n      0x20\n      add\n      0x00\n      keccak256\n        /* \"contracts/TournamentResults.sol\":899:931  tournamentsMap[id].pointsPlayer2 */\n      0x04\n      add\n        /* \"contracts/TournamentResults.sol\":899:945  tournamentsMap[id].pointsPlayer2 = pointsTeamB */\n      dup2\n      swap1\n      sstore\n      pop\n        /* \"contracts/TournamentResults.sol\":549:953  function storeTournamentDetails(uint256 id, string memory player1, string memory player2 , uint256 pointsTeamA, uint256 pointsTeamB ) public onlyOwner {... */\n      pop\n      pop\n      pop\n      pop\n      pop\n      jump\t// out\n        /* \"@openzeppelin/contracts/access/Ownable.sol\":2293:2394  function renounceOwnership() public virtual onlyOwner {... */\n    tag_25:\n        /* \"@openzeppelin/contracts/access/Ownable.sol\":1531:1544  _checkOwner() */\n      tag_66\n        /* \"@openzeppelin/contracts/access/Ownable.sol\":1531:1542  _checkOwner */\n      tag_60\n        /* \"@openzeppelin/contracts/access/Ownable.sol\":1531:1544  _checkOwner() */\n      jump\t// in\n    tag_66:\n        /* \"@openzeppelin/contracts/access/Ownable.sol\":2357:2387  _transferOwnership(address(0)) */\n      tag_68\n        /* \"@openzeppelin/contracts/access/Ownable.sol\":2384:2385  0 */\n      0x00\n        /* \"@openzeppelin/contracts/access/Ownable.sol\":2357:2375  _transferOwnership */\n      tag_69\n        /* \"@openzeppelin/contracts/access/Ownable.sol\":2357:2387  _transferOwnership(address(0)) */\n      jump\t// in\n    tag_68:\n        /* \"@openzeppelin/contracts/access/Ownable.sol\":2293:2394  function renounceOwnership() public virtual onlyOwner {... */\n      jump\t// out\n        /* \"@openzeppelin/contracts/access/Ownable.sol\":1638:1723  function owner() public view virtual returns (address) {... */\n    tag_27:\n        /* \"@openzeppelin/contracts/access/Ownable.sol\":1684:1691  address */\n      0x00\n        /* \"@openzeppelin/contracts/access/Ownable.sol\":1710:1716  _owner */\n      0x00\n      0x00\n      swap1\n      sload\n      swap1\n      0x0100\n      exp\n      swap1\n      div\n      0xffffffffffffffffffffffffffffffffffffffff\n      and\n        /* \"@openzeppelin/contracts/access/Ownable.sol\":1703:1716  return _owner */\n      swap1\n      pop\n        /* \"@openzeppelin/contracts/access/Ownable.sol\":1638:1723  function owner() public view virtual returns (address) {... */\n      swap1\n      jump\t// out\n        /* \"@openzeppelin/contracts/access/Ownable.sol\":2543:2758  function transferOwnership(address newOwner) public virtual onlyOwner {... */\n    tag_33:\n        /* \"@openzeppelin/contracts/access/Ownable.sol\":1531:1544  _checkOwner() */\n      tag_72\n        /* \"@openzeppelin/contracts/access/Ownable.sol\":1531:1542  _checkOwner */\n      tag_60\n        /* \"@openzeppelin/contracts/access/Ownable.sol\":1531:1544  _checkOwner() */\n      jump\t// in\n    tag_72:\n        /* \"@openzeppelin/contracts/access/Ownable.sol\":2647:2648  0 */\n      0x00\n        /* \"@openzeppelin/contracts/access/Ownable.sol\":2627:2649  newOwner == address(0) */\n      0xffffffffffffffffffffffffffffffffffffffff\n      and\n        /* \"@openzeppelin/contracts/access/Ownable.sol\":2627:2635  newOwner */\n      dup2\n        /* \"@openzeppelin/contracts/access/Ownable.sol\":2627:2649  newOwner == address(0) */\n      0xffffffffffffffffffffffffffffffffffffffff\n      and\n      sub\n        /* \"@openzeppelin/contracts/access/Ownable.sol\":2623:2714  if (newOwner == address(0)) {... */\n      tag_74\n      jumpi\n        /* \"@openzeppelin/contracts/access/Ownable.sol\":2700:2701  0 */\n      0x00\n        /* \"@openzeppelin/contracts/access/Ownable.sol\":2672:2703  OwnableInvalidOwner(address(0)) */\n      mload(0x40)\n      0x1e4fbdf700000000000000000000000000000000000000000000000000000000\n      dup2\n      mstore\n      0x04\n      add\n      tag_75\n      swap2\n      swap1\n      tag_29\n      jump\t// in\n    tag_75:\n      mload(0x40)\n      dup1\n      swap2\n      sub\n      swap1\n      revert\n        /* \"@openzeppelin/contracts/access/Ownable.sol\":2623:2714  if (newOwner == address(0)) {... */\n    tag_74:\n        /* \"@openzeppelin/contracts/access/Ownable.sol\":2723:2751  _transferOwnership(newOwner) */\n      tag_76\n        /* \"@openzeppelin/contracts/access/Ownable.sol\":2742:2750  newOwner */\n      dup2\n        /* \"@openzeppelin/contracts/access/Ownable.sol\":2723:2741  _transferOwnership */\n      tag_69\n        /* \"@openzeppelin/contracts/access/Ownable.sol\":2723:2751  _transferOwnership(newOwner) */\n      jump\t// in\n    tag_76:\n        /* \"@openzeppelin/contracts/access/Ownable.sol\":2543:2758  function transferOwnership(address newOwner) public virtual onlyOwner {... */\n      pop\n      jump\t// out\n        /* \"@openzeppelin/contracts/access/Ownable.sol\":1796:1958  function _checkOwner() internal view virtual {... */\n    tag_60:\n        /* \"@openzeppelin/contracts/access/Ownable.sol\":1866:1878  _msgSender() */\n      tag_78\n        /* \"@openzeppelin/contracts/access/Ownable.sol\":1866:1876  _msgSender */\n      tag_79\n        /* \"@openzeppelin/contracts/access/Ownable.sol\":1866:1878  _msgSender() */\n      jump\t// in\n    tag_78:\n        /* \"@openzeppelin/contracts/access/Ownable.sol\":1855:1878  owner() != _msgSender() */\n      0xffffffffffffffffffffffffffffffffffffffff\n      and\n        /* \"@openzeppelin/contracts/access/Ownable.sol\":1855:1862  owner() */\n      tag_80\n        /* \"@openzeppelin/contracts/access/Ownable.sol\":1855:1860  owner */\n      tag_27\n        /* \"@openzeppelin/contracts/access/Ownable.sol\":1855:1862  owner() */\n      jump\t// in\n    tag_80:\n        /* \"@openzeppelin/contracts/access/Ownable.sol\":1855:1878  owner() != _msgSender() */\n      0xffffffffffffffffffffffffffffffffffffffff\n      and\n      eq\n        /* \"@openzeppelin/contracts/access/Ownable.sol\":1851:1952  if (owner() != _msgSender()) {... */\n      tag_81\n      jumpi\n        /* \"@openzeppelin/contracts/access/Ownable.sol\":1928:1940  _msgSender() */\n      tag_82\n        /* \"@openzeppelin/contracts/access/Ownable.sol\":1928:1938  _msgSender */\n      tag_79\n        /* \"@openzeppelin/contracts/access/Ownable.sol\":1928:1940  _msgSender() */\n      jump\t// in\n    tag_82:\n        /* \"@openzeppelin/contracts/access/Ownable.sol\":1901:1941  OwnableUnauthorizedAccount(_msgSender()) */\n      mload(0x40)\n      0x118cdaa700000000000000000000000000000000000000000000000000000000\n      dup2\n      mstore\n      0x04\n      add\n      tag_83\n      swap2\n      swap1\n      tag_29\n      jump\t// in\n    tag_83:\n      mload(0x40)\n      dup1\n      swap2\n      sub\n      swap1\n      revert\n        /* \"@openzeppelin/contracts/access/Ownable.sol\":1851:1952  if (owner() != _msgSender()) {... */\n    tag_81:\n        /* \"@openzeppelin/contracts/access/Ownable.sol\":1796:1958  function _checkOwner() internal view virtual {... */\n      jump\t// out\n        /* \"@openzeppelin/contracts/access/Ownable.sol\":2912:3099  function _transferOwnership(address newOwner) internal virtual {... */\n    tag_69:\n        /* \"@openzeppelin/contracts/access/Ownable.sol\":2985:3001  address oldOwner */\n      0x00\n        /* \"@openzeppelin/contracts/access/Ownable.sol\":3004:3010  _owner */\n      0x00\n      0x00\n      swap1\n      sload\n      swap1\n      0x0100\n      exp\n      swap1\n      div\n      0xffffffffffffffffffffffffffffffffffffffff\n      and\n        /* \"@openzeppelin/contracts/access/Ownable.sol\":2985:3010  address oldOwner = _owner */\n      swap1\n      pop\n        /* \"@openzeppelin/contracts/access/Ownable.sol\":3029:3037  newOwner */\n      dup2\n        /* \"@openzeppelin/contracts/access/Ownable.sol\":3020:3026  _owner */\n      0x00\n      0x00\n        /* \"@openzeppelin/contracts/access/Ownable.sol\":3020:3037  _owner = newOwner */\n      0x0100\n      exp\n      dup2\n      sload\n      dup2\n      0xffffffffffffffffffffffffffffffffffffffff\n      mul\n      not\n      and\n      swap1\n      dup4\n      0xffffffffffffffffffffffffffffffffffffffff\n      and\n      mul\n      or\n      swap1\n      sstore\n      pop\n        /* \"@openzeppelin/contracts/access/Ownable.sol\":3083:3091  newOwner */\n      dup2\n        /* \"@openzeppelin/contracts/access/Ownable.sol\":3052:3092  OwnershipTransferred(oldOwner, newOwner) */\n      0xffffffffffffffffffffffffffffffffffffffff\n      and\n        /* \"@openzeppelin/contracts/access/Ownable.sol\":3073:3081  oldOwner */\n      dup2\n        /* \"@openzeppelin/contracts/access/Ownable.sol\":3052:3092  OwnershipTransferred(oldOwner, newOwner) */\n      0xffffffffffffffffffffffffffffffffffffffff\n      and\n      0x8be0079c531659141344cd1fd0a4f28419497f9722a3daafe3b4186f6b6457e0\n      mload(0x40)\n      mload(0x40)\n      dup1\n      swap2\n      sub\n      swap1\n      log3\n        /* \"@openzeppelin/contracts/access/Ownable.sol\":2975:3099  {... */\n      pop\n        /* \"@openzeppelin/contracts/access/Ownable.sol\":2912:3099  function _transferOwnership(address newOwner) internal virtual {... */\n      pop\n      jump\t// out\n        /* \"@openzeppelin/contracts/utils/Context.sol\":656:752  function _msgSender() internal view virtual returns (address) {... */\n    tag_79:\n        /* \"@openzeppelin/contracts/utils/Context.sol\":709:716  address */\n      0x00\n        /* \"@openzeppelin/contracts/utils/Context.sol\":735:745  msg.sender */\n      caller\n        /* \"@openzeppelin/contracts/utils/Context.sol\":728:745  return msg.sender */\n      swap1\n      pop\n        /* \"@openzeppelin/contracts/utils/Context.sol\":656:752  function _msgSender() internal view virtual returns (address) {... */\n      swap1\n      jump\t// out\n    tag_35:\n      mload(0x40)\n      dup1\n      0xa0\n      add\n      0x40\n      mstore\n      dup1\n      0x00\n      dup2\n      mstore\n      0x20\n      add\n      0x60\n      dup2\n      mstore\n      0x20\n      add\n      0x60\n      dup2\n      mstore\n      0x20\n      add\n      0x00\n      dup2\n      mstore\n      0x20\n      add\n      0x00\n      dup2\n      mstore\n      pop\n      swap1\n      jump\t// out\n        /* \"#utility.yul\":7:82   */\n    tag_86:\n        /* \"#utility.yul\":40:46   */\n      0x00\n        /* \"#utility.yul\":73:75   */\n      0x40\n        /* \"#utility.yul\":67:76   */\n      mload\n        /* \"#utility.yul\":57:76   */\n      swap1\n      pop\n        /* \"#utility.yul\":7:82   */\n      swap1\n      jump\t// out\n        /* \"#utility.yul\":88:205   */\n    tag_87:\n        /* \"#utility.yul\":197:198   */\n      0x00\n        /* \"#utility.yul\":194:195   */\n      0x00\n        /* \"#utility.yul\":187:199   */\n      revert\n        /* \"#utility.yul\":211:328   */\n    tag_88:\n        /* \"#utility.yul\":320:321   */\n      0x00\n        /* \"#utility.yul\":317:318   */\n      0x00\n        /* \"#utility.yul\":310:322   */\n      revert\n        /* \"#utility.yul\":334:411   */\n    tag_89:\n        /* \"#utility.yul\":371:378   */\n      0x00\n        /* \"#utility.yul\":400:405   */\n      dup2\n        /* \"#utility.yul\":389:405   */\n      swap1\n      pop\n        /* \"#utility.yul\":334:411   */\n      swap2\n      swap1\n      pop\n      jump\t// out\n        /* \"#utility.yul\":417:539   */\n    tag_90:\n        /* \"#utility.yul\":490:514   */\n      tag_138\n        /* \"#utility.yul\":508:513   */\n      dup2\n        /* \"#utility.yul\":490:514   */\n      tag_89\n      jump\t// in\n    tag_138:\n        /* \"#utility.yul\":483:488   */\n      dup2\n        /* \"#utility.yul\":480:515   */\n      eq\n        /* \"#utility.yul\":470:533   */\n      tag_139\n      jumpi\n        /* \"#utility.yul\":529:530   */\n      0x00\n        /* \"#utility.yul\":526:527   */\n      0x00\n        /* \"#utility.yul\":519:531   */\n      revert\n        /* \"#utility.yul\":470:533   */\n    tag_139:\n        /* \"#utility.yul\":417:539   */\n      pop\n      jump\t// out\n        /* \"#utility.yul\":545:684   */\n    tag_91:\n        /* \"#utility.yul\":591:596   */\n      0x00\n        /* \"#utility.yul\":629:635   */\n      dup2\n        /* \"#utility.yul\":616:636   */\n      calldataload\n        /* \"#utility.yul\":607:636   */\n      swap1\n      pop\n        /* \"#utility.yul\":645:678   */\n      tag_141\n        /* \"#utility.yul\":672:677   */\n      dup2\n        /* \"#utility.yul\":645:678   */\n      tag_90\n      jump\t// in\n    tag_141:\n        /* \"#utility.yul\":545:684   */\n      swap3\n      swap2\n      pop\n      pop\n      jump\t// out\n        /* \"#utility.yul\":690:1019   */\n    tag_11:\n        /* \"#utility.yul\":749:755   */\n      0x00\n        /* \"#utility.yul\":798:800   */\n      0x20\n        /* \"#utility.yul\":786:795   */\n      dup3\n        /* \"#utility.yul\":777:784   */\n      dup5\n        /* \"#utility.yul\":773:796   */\n      sub\n        /* \"#utility.yul\":769:801   */\n      slt\n        /* \"#utility.yul\":766:885   */\n      iszero\n      tag_143\n      jumpi\n        /* \"#utility.yul\":804:883   */\n      tag_144\n      tag_87\n      jump\t// in\n    tag_144:\n        /* \"#utility.yul\":766:885   */\n    tag_143:\n        /* \"#utility.yul\":924:925   */\n      0x00\n        /* \"#utility.yul\":949:1002   */\n      tag_145\n        /* \"#utility.yul\":994:1001   */\n      dup5\n        /* \"#utility.yul\":985:991   */\n      dup3\n        /* \"#utility.yul\":974:983   */\n      dup6\n        /* \"#utility.yul\":970:992   */\n      add\n        /* \"#utility.yul\":949:1002   */\n      tag_91\n      jump\t// in\n    tag_145:\n        /* \"#utility.yul\":939:1002   */\n      swap2\n      pop\n        /* \"#utility.yul\":895:1012   */\n      pop\n        /* \"#utility.yul\":690:1019   */\n      swap3\n      swap2\n      pop\n      pop\n      jump\t// out\n        /* \"#utility.yul\":1025:1133   */\n    tag_92:\n        /* \"#utility.yul\":1102:1126   */\n      tag_147\n        /* \"#utility.yul\":1120:1125   */\n      dup2\n        /* \"#utility.yul\":1102:1126   */\n      tag_89\n      jump\t// in\n    tag_147:\n        /* \"#utility.yul\":1097:1100   */\n      dup3\n        /* \"#utility.yul\":1090:1127   */\n      mstore\n        /* \"#utility.yul\":1025:1133   */\n      pop\n      pop\n      jump\t// out\n        /* \"#utility.yul\":1139:1238   */\n    tag_93:\n        /* \"#utility.yul\":1191:1197   */\n      0x00\n        /* \"#utility.yul\":1225:1230   */\n      dup2\n        /* \"#utility.yul\":1219:1231   */\n      mload\n        /* \"#utility.yul\":1209:1231   */\n      swap1\n      pop\n        /* \"#utility.yul\":1139:1238   */\n      swap2\n      swap1\n      pop\n      jump\t// out\n        /* \"#utility.yul\":1244:1403   */\n    tag_94:\n        /* \"#utility.yul\":1318:1329   */\n      0x00\n        /* \"#utility.yul\":1352:1358   */\n      dup3\n        /* \"#utility.yul\":1347:1350   */\n      dup3\n        /* \"#utility.yul\":1340:1359   */\n      mstore\n        /* \"#utility.yul\":1392:1396   */\n      0x20\n        /* \"#utility.yul\":1387:1390   */\n      dup3\n        /* \"#utility.yul\":1383:1397   */\n      add\n        /* \"#utility.yul\":1368:1397   */\n      swap1\n      pop\n        /* \"#utility.yul\":1244:1403   */\n      swap3\n      swap2\n      pop\n      pop\n      jump\t// out\n        /* \"#utility.yul\":1409:1548   */\n    tag_95:\n        /* \"#utility.yul\":1498:1504   */\n      dup3\n        /* \"#utility.yul\":1493:1496   */\n      dup2\n        /* \"#utility.yul\":1488:1491   */\n      dup4\n        /* \"#utility.yul\":1482:1505   */\n      mcopy\n        /* \"#utility.yul\":1539:1540   */\n      0x00\n        /* \"#utility.yul\":1530:1536   */\n      dup4\n        /* \"#utility.yul\":1525:1528   */\n      dup4\n        /* \"#utility.yul\":1521:1537   */\n      add\n        /* \"#utility.yul\":1514:1541   */\n      mstore\n        /* \"#utility.yul\":1409:1548   */\n      pop\n      pop\n      pop\n      jump\t// out\n        /* \"#utility.yul\":1554:1656   */\n    tag_96:\n        /* \"#utility.yul\":1595:1601   */\n      0x00\n        /* \"#utility.yul\":1646:1648   */\n      0x1f\n        /* \"#utility.yul\":1642:1649   */\n      not\n        /* \"#utility.yul\":1637:1639   */\n      0x1f\n        /* \"#utility.yul\":1630:1635   */\n      dup4\n        /* \"#utility.yul\":1626:1640   */\n      add\n        /* \"#utility.yul\":1622:1650   */\n      and\n        /* \"#utility.yul\":1612:1650   */\n      swap1\n      pop\n        /* \"#utility.yul\":1554:1656   */\n      swap2\n      swap1\n      pop\n      jump\t// out\n        /* \"#utility.yul\":1662:2019   */\n    tag_97:\n        /* \"#utility.yul\":1740:1743   */\n      0x00\n        /* \"#utility.yul\":1768:1807   */\n      tag_153\n        /* \"#utility.yul\":1801:1806   */\n      dup3\n        /* \"#utility.yul\":1768:1807   */\n      tag_93\n      jump\t// in\n    tag_153:\n        /* \"#utility.yul\":1823:1884   */\n      tag_154\n        /* \"#utility.yul\":1877:1883   */\n      dup2\n        /* \"#utility.yul\":1872:1875   */\n      dup6\n        /* \"#utility.yul\":1823:1884   */\n      tag_94\n      jump\t// in\n    tag_154:\n        /* \"#utility.yul\":1816:1884   */\n      swap4\n      pop\n        /* \"#utility.yul\":1893:1958   */\n      tag_155\n        /* \"#utility.yul\":1951:1957   */\n      dup2\n        /* \"#utility.yul\":1946:1949   */\n      dup6\n        /* \"#utility.yul\":1939:1943   */\n      0x20\n        /* \"#utility.yul\":1932:1937   */\n      dup7\n        /* \"#utility.yul\":1928:1944   */\n      add\n        /* \"#utility.yul\":1893:1958   */\n      tag_95\n      jump\t// in\n    tag_155:\n        /* \"#utility.yul\":1983:2012   */\n      tag_156\n        /* \"#utility.yul\":2005:2011   */\n      dup2\n        /* \"#utility.yul\":1983:2012   */\n      tag_96\n      jump\t// in\n    tag_156:\n        /* \"#utility.yul\":1978:1981   */\n      dup5\n        /* \"#utility.yul\":1974:2013   */\n      add\n        /* \"#utility.yul\":1967:2013   */\n      swap2\n      pop\n        /* \"#utility.yul\":1744:2019   */\n      pop\n        /* \"#utility.yul\":1662:2019   */\n      swap3\n      swap2\n      pop\n      pop\n      jump\t// out\n        /* \"#utility.yul\":2121:3360   */\n    tag_98:\n        /* \"#utility.yul\":2258:2261   */\n      0x00\n        /* \"#utility.yul\":2294:2298   */\n      0xa0\n        /* \"#utility.yul\":2289:2292   */\n      dup4\n        /* \"#utility.yul\":2285:2299   */\n      add\n        /* \"#utility.yul\":2379:2383   */\n      0x00\n        /* \"#utility.yul\":2372:2377   */\n      dup4\n        /* \"#utility.yul\":2368:2384   */\n      add\n        /* \"#utility.yul\":2362:2385   */\n      mload\n        /* \"#utility.yul\":2398:2461   */\n      tag_158\n        /* \"#utility.yul\":2455:2459   */\n      0x00\n        /* \"#utility.yul\":2450:2453   */\n      dup7\n        /* \"#utility.yul\":2446:2460   */\n      add\n        /* \"#utility.yul\":2432:2444   */\n      dup3\n        /* \"#utility.yul\":2398:2461   */\n      tag_92\n      jump\t// in\n    tag_158:\n        /* \"#utility.yul\":2309:2471   */\n      pop\n        /* \"#utility.yul\":2556:2560   */\n      0x20\n        /* \"#utility.yul\":2549:2554   */\n      dup4\n        /* \"#utility.yul\":2545:2561   */\n      add\n        /* \"#utility.yul\":2539:2562   */\n      mload\n        /* \"#utility.yul\":2609:2612   */\n      dup5\n        /* \"#utility.yul\":2603:2607   */\n      dup3\n        /* \"#utility.yul\":2599:2613   */\n      sub\n        /* \"#utility.yul\":2592:2596   */\n      0x20\n        /* \"#utility.yul\":2587:2590   */\n      dup7\n        /* \"#utility.yul\":2583:2597   */\n      add\n        /* \"#utility.yul\":2576:2614   */\n      mstore\n        /* \"#utility.yul\":2635:2708   */\n      tag_159\n        /* \"#utility.yul\":2703:2707   */\n      dup3\n        /* \"#utility.yul\":2689:2701   */\n      dup3\n        /* \"#utility.yul\":2635:2708   */\n      tag_97\n      jump\t// in\n    tag_159:\n        /* \"#utility.yul\":2627:2708   */\n      swap2\n      pop\n        /* \"#utility.yul\":2481:2719   */\n      pop\n        /* \"#utility.yul\":2804:2808   */\n      0x40\n        /* \"#utility.yul\":2797:2802   */\n      dup4\n        /* \"#utility.yul\":2793:2809   */\n      add\n        /* \"#utility.yul\":2787:2810   */\n      mload\n        /* \"#utility.yul\":2857:2860   */\n      dup5\n        /* \"#utility.yul\":2851:2855   */\n      dup3\n        /* \"#utility.yul\":2847:2861   */\n      sub\n        /* \"#utility.yul\":2840:2844   */\n      0x40\n        /* \"#utility.yul\":2835:2838   */\n      dup7\n        /* \"#utility.yul\":2831:2845   */\n      add\n        /* \"#utility.yul\":2824:2862   */\n      mstore\n        /* \"#utility.yul\":2883:2956   */\n      tag_160\n        /* \"#utility.yul\":2951:2955   */\n      dup3\n        /* \"#utility.yul\":2937:2949   */\n      dup3\n        /* \"#utility.yul\":2883:2956   */\n      tag_97\n      jump\t// in\n    tag_160:\n        /* \"#utility.yul\":2875:2956   */\n      swap2\n      pop\n        /* \"#utility.yul\":2729:2967   */\n      pop\n        /* \"#utility.yul\":3058:3062   */\n      0x60\n        /* \"#utility.yul\":3051:3056   */\n      dup4\n        /* \"#utility.yul\":3047:3063   */\n      add\n        /* \"#utility.yul\":3041:3064   */\n      mload\n        /* \"#utility.yul\":3077:3140   */\n      tag_161\n        /* \"#utility.yul\":3134:3138   */\n      0x60\n        /* \"#utility.yul\":3129:3132   */\n      dup7\n        /* \"#utility.yul\":3125:3139   */\n      add\n        /* \"#utility.yul\":3111:3123   */\n      dup3\n        /* \"#utility.yul\":3077:3140   */\n      tag_92\n      jump\t// in\n    tag_161:\n        /* \"#utility.yul\":2977:3150   */\n      pop\n        /* \"#utility.yul\":3241:3245   */\n      0x80\n        /* \"#utility.yul\":3234:3239   */\n      dup4\n        /* \"#utility.yul\":3230:3246   */\n      add\n        /* \"#utility.yul\":3224:3247   */\n      mload\n        /* \"#utility.yul\":3260:3323   */\n      tag_162\n        /* \"#utility.yul\":3317:3321   */\n      0x80\n        /* \"#utility.yul\":3312:3315   */\n      dup7\n        /* \"#utility.yul\":3308:3322   */\n      add\n        /* \"#utility.yul\":3294:3306   */\n      dup3\n        /* \"#utility.yul\":3260:3323   */\n      tag_92\n      jump\t// in\n    tag_162:\n        /* \"#utility.yul\":3160:3333   */\n      pop\n        /* \"#utility.yul\":3350:3354   */\n      dup1\n        /* \"#utility.yul\":3343:3354   */\n      swap2\n      pop\n        /* \"#utility.yul\":2263:3360   */\n      pop\n        /* \"#utility.yul\":2121:3360   */\n      swap3\n      swap2\n      pop\n      pop\n      jump\t// out\n        /* \"#utility.yul\":3366:3775   */\n    tag_14:\n        /* \"#utility.yul\":3527:3531   */\n      0x00\n        /* \"#utility.yul\":3565:3567   */\n      0x20\n        /* \"#utility.yul\":3554:3563   */\n      dup3\n        /* \"#utility.yul\":3550:3568   */\n      add\n        /* \"#utility.yul\":3542:3568   */\n      swap1\n      pop\n        /* \"#utility.yul\":3614:3623   */\n      dup2\n        /* \"#utility.yul\":3608:3612   */\n      dup2\n        /* \"#utility.yul\":3604:3624   */\n      sub\n        /* \"#utility.yul\":3600:3601   */\n      0x00\n        /* \"#utility.yul\":3589:3598   */\n      dup4\n        /* \"#utility.yul\":3585:3602   */\n      add\n        /* \"#utility.yul\":3578:3625   */\n      mstore\n        /* \"#utility.yul\":3642:3768   */\n      tag_164\n        /* \"#utility.yul\":3763:3767   */\n      dup2\n        /* \"#utility.yul\":3754:3760   */\n      dup5\n        /* \"#utility.yul\":3642:3768   */\n      tag_98\n      jump\t// in\n    tag_164:\n        /* \"#utility.yul\":3634:3768   */\n      swap1\n      pop\n        /* \"#utility.yul\":3366:3775   */\n      swap3\n      swap2\n      pop\n      pop\n      jump\t// out\n        /* \"#utility.yul\":3781:3899   */\n    tag_99:\n        /* \"#utility.yul\":3868:3892   */\n      tag_166\n        /* \"#utility.yul\":3886:3891   */\n      dup2\n        /* \"#utility.yul\":3868:3892   */\n      tag_89\n      jump\t// in\n    tag_166:\n        /* \"#utility.yul\":3863:3866   */\n      dup3\n        /* \"#utility.yul\":3856:3893   */\n      mstore\n        /* \"#utility.yul\":3781:3899   */\n      pop\n      pop\n      jump\t// out\n        /* \"#utility.yul\":3905:4074   */\n    tag_100:\n        /* \"#utility.yul\":3989:4000   */\n      0x00\n        /* \"#utility.yul\":4023:4029   */\n      dup3\n        /* \"#utility.yul\":4018:4021   */\n      dup3\n        /* \"#utility.yul\":4011:4030   */\n      mstore\n        /* \"#utility.yul\":4063:4067   */\n      0x20\n        /* \"#utility.yul\":4058:4061   */\n      dup3\n        /* \"#utility.yul\":4054:4068   */\n      add\n        /* \"#utility.yul\":4039:4068   */\n      swap1\n      pop\n        /* \"#utility.yul\":3905:4074   */\n      swap3\n      swap2\n      pop\n      pop\n      jump\t// out\n        /* \"#utility.yul\":4080:4457   */\n    tag_101:\n        /* \"#utility.yul\":4168:4171   */\n      0x00\n        /* \"#utility.yul\":4196:4235   */\n      tag_169\n        /* \"#utility.yul\":4229:4234   */\n      dup3\n        /* \"#utility.yul\":4196:4235   */\n      tag_93\n      jump\t// in\n    tag_169:\n        /* \"#utility.yul\":4251:4322   */\n      tag_170\n        /* \"#utility.yul\":4315:4321   */\n      dup2\n        /* \"#utility.yul\":4310:4313   */\n      dup6\n        /* \"#utility.yul\":4251:4322   */\n      tag_100\n      jump\t// in\n    tag_170:\n        /* \"#utility.yul\":4244:4322   */\n      swap4\n      pop\n        /* \"#utility.yul\":4331:4396   */\n      tag_171\n        /* \"#utility.yul\":4389:4395   */\n      dup2\n        /* \"#utility.yul\":4384:4387   */\n      dup6\n        /* \"#utility.yul\":4377:4381   */\n      0x20\n        /* \"#utility.yul\":4370:4375   */\n      dup7\n        /* \"#utility.yul\":4366:4382   */\n      add\n        /* \"#utility.yul\":4331:4396   */\n      tag_95\n      jump\t// in\n    tag_171:\n        /* \"#utility.yul\":4421:4450   */\n      tag_172\n        /* \"#utility.yul\":4443:4449   */\n      dup2\n        /* \"#utility.yul\":4421:4450   */\n      tag_96\n      jump\t// in\n    tag_172:\n        /* \"#utility.yul\":4416:4419   */\n      dup5\n        /* \"#utility.yul\":4412:4451   */\n      add\n        /* \"#utility.yul\":4405:4451   */\n      swap2\n      pop\n        /* \"#utility.yul\":4172:4457   */\n      pop\n        /* \"#utility.yul\":4080:4457   */\n      swap3\n      swap2\n      pop\n      pop\n      jump\t// out\n        /* \"#utility.yul\":4463:5309   */\n    tag_19:\n        /* \"#utility.yul\":4708:4712   */\n      0x00\n        /* \"#utility.yul\":4746:4749   */\n      0xa0\n        /* \"#utility.yul\":4735:4744   */\n      dup3\n        /* \"#utility.yul\":4731:4750   */\n      add\n        /* \"#utility.yul\":4723:4750   */\n      swap1\n      pop\n        /* \"#utility.yul\":4760:4831   */\n      tag_174\n        /* \"#utility.yul\":4828:4829   */\n      0x00\n        /* \"#utility.yul\":4817:4826   */\n      dup4\n        /* \"#utility.yul\":4813:4830   */\n      add\n        /* \"#utility.yul\":4804:4810   */\n      dup9\n        /* \"#utility.yul\":4760:4831   */\n      tag_99\n      jump\t// in\n    tag_174:\n        /* \"#utility.yul\":4878:4887   */\n      dup2\n        /* \"#utility.yul\":4872:4876   */\n      dup2\n        /* \"#utility.yul\":4868:4888   */\n      sub\n        /* \"#utility.yul\":4863:4865   */\n      0x20\n        /* \"#utility.yul\":4852:4861   */\n      dup4\n        /* \"#utility.yul\":4848:4866   */\n      add\n        /* \"#utility.yul\":4841:4889   */\n      mstore\n        /* \"#utility.yul\":4906:4984   */\n      tag_175\n        /* \"#utility.yul\":4979:4983   */\n      dup2\n        /* \"#utility.yul\":4970:4976   */\n      dup8\n        /* \"#utility.yul\":4906:4984   */\n      tag_101\n      jump\t// in\n    tag_175:\n        /* \"#utility.yul\":4898:4984   */\n      swap1\n      pop\n        /* \"#utility.yul\":5031:5040   */\n      dup2\n        /* \"#utility.yul\":5025:5029   */\n      dup2\n        /* \"#utility.yul\":5021:5041   */\n      sub\n        /* \"#utility.yul\":5016:5018   */\n      0x40\n        /* \"#utility.yul\":5005:5014   */\n      dup4\n        /* \"#utility.yul\":5001:5019   */\n      add\n        /* \"#utility.yul\":4994:5042   */\n      mstore\n        /* \"#utility.yul\":5059:5137   */\n      tag_176\n        /* \"#utility.yul\":5132:5136   */\n      dup2\n        /* \"#utility.yul\":5123:5129   */\n      dup7\n        /* \"#utility.yul\":5059:5137   */\n      tag_101\n      jump\t// in\n    tag_176:\n        /* \"#utility.yul\":5051:5137   */\n      swap1\n      pop\n        /* \"#utility.yul\":5147:5219   */\n      tag_177\n        /* \"#utility.yul\":5215:5217   */\n      0x60\n        /* \"#utility.yul\":5204:5213   */\n      dup4\n        /* \"#utility.yul\":5200:5218   */\n      add\n        /* \"#utility.yul\":5191:5197   */\n      dup6\n        /* \"#utility.yul\":5147:5219   */\n      tag_99\n      jump\t// in\n    tag_177:\n        /* \"#utility.yul\":5229:5302   */\n      tag_178\n        /* \"#utility.yul\":5297:5300   */\n      0x80\n        /* \"#utility.yul\":5286:5295   */\n      dup4\n        /* \"#utility.yul\":5282:5301   */\n      add\n        /* \"#utility.yul\":5273:5279   */\n      dup5\n        /* \"#utility.yul\":5229:5302   */\n      tag_99\n      jump\t// in\n    tag_178:\n        /* \"#utility.yul\":4463:5309   */\n      swap7\n      swap6\n      pop\n      pop\n      pop\n      pop\n      pop\n      pop\n      jump\t// out\n        /* \"#utility.yul\":5315:5432   */\n    tag_102:\n        /* \"#utility.yul\":5424:5425   */\n      0x00\n        /* \"#utility.yul\":5421:5422   */\n      0x00\n        /* \"#utility.yul\":5414:5426   */\n      revert\n        /* \"#utility.yul\":5438:5555   */\n    tag_103:\n        /* \"#utility.yul\":5547:5548   */\n      0x00\n        /* \"#utility.yul\":5544:5545   */\n      0x00\n        /* \"#utility.yul\":5537:5549   */\n      revert\n        /* \"#utility.yul\":5561:5741   */\n    tag_104:\n        /* \"#utility.yul\":5609:5686   */\n      0x4e487b7100000000000000000000000000000000000000000000000000000000\n        /* \"#utility.yul\":5606:5607   */\n      0x00\n        /* \"#utility.yul\":5599:5687   */\n      mstore\n        /* \"#utility.yul\":5706:5710   */\n      0x41\n        /* \"#utility.yul\":5703:5704   */\n      0x04\n        /* \"#utility.yul\":5696:5711   */\n      mstore\n        /* \"#utility.yul\":5730:5734   */\n      0x24\n        /* \"#utility.yul\":5727:5728   */\n      0x00\n        /* \"#utility.yul\":5720:5735   */\n      revert\n        /* \"#utility.yul\":5747:6028   */\n    tag_105:\n        /* \"#utility.yul\":5830:5857   */\n      tag_183\n        /* \"#utility.yul\":5852:5856   */\n      dup3\n        /* \"#utility.yul\":5830:5857   */\n      tag_96\n      jump\t// in\n    tag_183:\n        /* \"#utility.yul\":5822:5828   */\n      dup2\n        /* \"#utility.yul\":5818:5858   */\n      add\n        /* \"#utility.yul\":5960:5966   */\n      dup2\n        /* \"#utility.yul\":5948:5958   */\n      dup2\n        /* \"#utility.yul\":5945:5967   */\n      lt\n        /* \"#utility.yul\":5924:5942   */\n      0xffffffffffffffff\n        /* \"#utility.yul\":5912:5922   */\n      dup3\n        /* \"#utility.yul\":5909:5943   */\n      gt\n        /* \"#utility.yul\":5906:5968   */\n      or\n        /* \"#utility.yul\":5903:5991   */\n      iszero\n      tag_184\n      jumpi\n        /* \"#utility.yul\":5971:5989   */\n      tag_185\n      tag_104\n      jump\t// in\n    tag_185:\n        /* \"#utility.yul\":5903:5991   */\n    tag_184:\n        /* \"#utility.yul\":6011:6021   */\n      dup1\n        /* \"#utility.yul\":6007:6009   */\n      0x40\n        /* \"#utility.yul\":6000:6022   */\n      mstore\n        /* \"#utility.yul\":5790:6028   */\n      pop\n        /* \"#utility.yul\":5747:6028   */\n      pop\n      pop\n      jump\t// out\n        /* \"#utility.yul\":6034:6163   */\n    tag_106:\n        /* \"#utility.yul\":6068:6074   */\n      0x00\n        /* \"#utility.yul\":6095:6115   */\n      tag_187\n      tag_86\n      jump\t// in\n    tag_187:\n        /* \"#utility.yul\":6085:6115   */\n      swap1\n      pop\n        /* \"#utility.yul\":6124:6157   */\n      tag_188\n        /* \"#utility.yul\":6152:6156   */\n      dup3\n        /* \"#utility.yul\":6144:6150   */\n      dup3\n        /* \"#utility.yul\":6124:6157   */\n      tag_105\n      jump\t// in\n    tag_188:\n        /* \"#utility.yul\":6034:6163   */\n      swap2\n      swap1\n      pop\n      jump\t// out\n        /* \"#utility.yul\":6169:6477   */\n    tag_107:\n        /* \"#utility.yul\":6231:6235   */\n      0x00\n        /* \"#utility.yul\":6321:6339   */\n      0xffffffffffffffff\n        /* \"#utility.yul\":6313:6319   */\n      dup3\n        /* \"#utility.yul\":6310:6340   */\n      gt\n        /* \"#utility.yul\":6307:6363   */\n      iszero\n      tag_190\n      jumpi\n        /* \"#utility.yul\":6343:6361   */\n      tag_191\n      tag_104\n      jump\t// in\n    tag_191:\n        /* \"#utility.yul\":6307:6363   */\n    tag_190:\n        /* \"#utility.yul\":6381:6410   */\n      tag_192\n        /* \"#utility.yul\":6403:6409   */\n      dup3\n        /* \"#utility.yul\":6381:6410   */\n      tag_96\n      jump\t// in\n    tag_192:\n        /* \"#utility.yul\":6373:6410   */\n      swap1\n      pop\n        /* \"#utility.yul\":6465:6469   */\n      0x20\n        /* \"#utility.yul\":6459:6463   */\n      dup2\n        /* \"#utility.yul\":6455:6470   */\n      add\n        /* \"#utility.yul\":6447:6470   */\n      swap1\n      pop\n        /* \"#utility.yul\":6169:6477   */\n      swap2\n      swap1\n      pop\n      jump\t// out\n        /* \"#utility.yul\":6483:6631   */\n    tag_108:\n        /* \"#utility.yul\":6581:6587   */\n      dup3\n        /* \"#utility.yul\":6576:6579   */\n      dup2\n        /* \"#utility.yul\":6571:6574   */\n      dup4\n        /* \"#utility.yul\":6558:6588   */\n      calldatacopy\n        /* \"#utility.yul\":6622:6623   */\n      0x00\n        /* \"#utility.yul\":6613:6619   */\n      dup4\n        /* \"#utility.yul\":6608:6611   */\n      dup4\n        /* \"#utility.yul\":6604:6620   */\n      add\n        /* \"#utility.yul\":6597:6624   */\n      mstore\n        /* \"#utility.yul\":6483:6631   */\n      pop\n      pop\n      pop\n      jump\t// out\n        /* \"#utility.yul\":6637:7062   */\n    tag_109:\n        /* \"#utility.yul\":6715:6720   */\n      0x00\n        /* \"#utility.yul\":6740:6806   */\n      tag_195\n        /* \"#utility.yul\":6756:6805   */\n      tag_196\n        /* \"#utility.yul\":6798:6804   */\n      dup5\n        /* \"#utility.yul\":6756:6805   */\n      tag_107\n      jump\t// in\n    tag_196:\n        /* \"#utility.yul\":6740:6806   */\n      tag_106\n      jump\t// in\n    tag_195:\n        /* \"#utility.yul\":6731:6806   */\n      swap1\n      pop\n        /* \"#utility.yul\":6829:6835   */\n      dup3\n        /* \"#utility.yul\":6822:6827   */\n      dup2\n        /* \"#utility.yul\":6815:6836   */\n      mstore\n        /* \"#utility.yul\":6867:6871   */\n      0x20\n        /* \"#utility.yul\":6860:6865   */\n      dup2\n        /* \"#utility.yul\":6856:6872   */\n      add\n        /* \"#utility.yul\":6905:6908   */\n      dup5\n        /* \"#utility.yul\":6896:6902   */\n      dup5\n        /* \"#utility.yul\":6891:6894   */\n      dup5\n        /* \"#utility.yul\":6887:6903   */\n      add\n        /* \"#utility.yul\":6884:6909   */\n      gt\n        /* \"#utility.yul\":6881:6993   */\n      iszero\n      tag_197\n      jumpi\n        /* \"#utility.yul\":6912:6991   */\n      tag_198\n      tag_103\n      jump\t// in\n    tag_198:\n        /* \"#utility.yul\":6881:6993   */\n    tag_197:\n        /* \"#utility.yul\":7002:7056   */\n      tag_199\n        /* \"#utility.yul\":7049:7055   */\n      dup5\n        /* \"#utility.yul\":7044:7047   */\n      dup3\n        /* \"#utility.yul\":7039:7042   */\n      dup6\n        /* \"#utility.yul\":7002:7056   */\n      tag_108\n      jump\t// in\n    tag_199:\n        /* \"#utility.yul\":6721:7062   */\n      pop\n        /* \"#utility.yul\":6637:7062   */\n      swap4\n      swap3\n      pop\n      pop\n      pop\n      jump\t// out\n        /* \"#utility.yul\":7082:7422   */\n    tag_110:\n        /* \"#utility.yul\":7138:7143   */\n      0x00\n        /* \"#utility.yul\":7187:7190   */\n      dup3\n        /* \"#utility.yul\":7180:7184   */\n      0x1f\n        /* \"#utility.yul\":7172:7178   */\n      dup4\n        /* \"#utility.yul\":7168:7185   */\n      add\n        /* \"#utility.yul\":7164:7191   */\n      slt\n        /* \"#utility.yul\":7154:7276   */\n      tag_201\n      jumpi\n        /* \"#utility.yul\":7195:7274   */\n      tag_202\n      tag_102\n      jump\t// in\n    tag_202:\n        /* \"#utility.yul\":7154:7276   */\n    tag_201:\n        /* \"#utility.yul\":7312:7318   */\n      dup2\n        /* \"#utility.yul\":7299:7319   */\n      calldataload\n        /* \"#utility.yul\":7337:7416   */\n      tag_203\n        /* \"#utility.yul\":7412:7415   */\n      dup5\n        /* \"#utility.yul\":7404:7410   */\n      dup3\n        /* \"#utility.yul\":7397:7401   */\n      0x20\n        /* \"#utility.yul\":7389:7395   */\n      dup7\n        /* \"#utility.yul\":7385:7402   */\n      add\n        /* \"#utility.yul\":7337:7416   */\n      tag_109\n      jump\t// in\n    tag_203:\n        /* \"#utility.yul\":7328:7416   */\n      swap2\n      pop\n        /* \"#utility.yul\":7144:7422   */\n      pop\n        /* \"#utility.yul\":7082:7422   */\n      swap3\n      swap2\n      pop\n      pop\n      jump\t// out\n        /* \"#utility.yul\":7428:8699   */\n    tag_22:\n        /* \"#utility.yul\":7543:7549   */\n      0x00\n        /* \"#utility.yul\":7551:7557   */\n      0x00\n        /* \"#utility.yul\":7559:7565   */\n      0x00\n        /* \"#utility.yul\":7567:7573   */\n      0x00\n        /* \"#utility.yul\":7575:7581   */\n      0x00\n        /* \"#utility.yul\":7624:7627   */\n      0xa0\n        /* \"#utility.yul\":7612:7621   */\n      dup7\n        /* \"#utility.yul\":7603:7610   */\n      dup9\n        /* \"#utility.yul\":7599:7622   */\n      sub\n        /* \"#utility.yul\":7595:7628   */\n      slt\n        /* \"#utility.yul\":7592:7712   */\n      iszero\n      tag_205\n      jumpi\n        /* \"#utility.yul\":7631:7710   */\n      tag_206\n      tag_87\n      jump\t// in\n    tag_206:\n        /* \"#utility.yul\":7592:7712   */\n    tag_205:\n        /* \"#utility.yul\":7751:7752   */\n      0x00\n        /* \"#utility.yul\":7776:7829   */\n      tag_207\n        /* \"#utility.yul\":7821:7828   */\n      dup9\n        /* \"#utility.yul\":7812:7818   */\n      dup3\n        /* \"#utility.yul\":7801:7810   */\n      dup10\n        /* \"#utility.yul\":7797:7819   */\n      add\n        /* \"#utility.yul\":7776:7829   */\n      tag_91\n      jump\t// in\n    tag_207:\n        /* \"#utility.yul\":7766:7829   */\n      swap6\n      pop\n        /* \"#utility.yul\":7722:7839   */\n      pop\n        /* \"#utility.yul\":7906:7908   */\n      0x20\n        /* \"#utility.yul\":7895:7904   */\n      dup7\n        /* \"#utility.yul\":7891:7909   */\n      add\n        /* \"#utility.yul\":7878:7910   */\n      calldataload\n        /* \"#utility.yul\":7937:7955   */\n      0xffffffffffffffff\n        /* \"#utility.yul\":7929:7935   */\n      dup2\n        /* \"#utility.yul\":7926:7956   */\n      gt\n        /* \"#utility.yul\":7923:8040   */\n      iszero\n      tag_208\n      jumpi\n        /* \"#utility.yul\":7959:8038   */\n      tag_209\n      tag_88\n      jump\t// in\n    tag_209:\n        /* \"#utility.yul\":7923:8040   */\n    tag_208:\n        /* \"#utility.yul\":8064:8127   */\n      tag_210\n        /* \"#utility.yul\":8119:8126   */\n      dup9\n        /* \"#utility.yul\":8110:8116   */\n      dup3\n        /* \"#utility.yul\":8099:8108   */\n      dup10\n        /* \"#utility.yul\":8095:8117   */\n      add\n        /* \"#utility.yul\":8064:8127   */\n      tag_110\n      jump\t// in\n    tag_210:\n        /* \"#utility.yul\":8054:8127   */\n      swap5\n      pop\n        /* \"#utility.yul\":7849:8137   */\n      pop\n        /* \"#utility.yul\":8204:8206   */\n      0x40\n        /* \"#utility.yul\":8193:8202   */\n      dup7\n        /* \"#utility.yul\":8189:8207   */\n      add\n        /* \"#utility.yul\":8176:8208   */\n      calldataload\n        /* \"#utility.yul\":8235:8253   */\n      0xffffffffffffffff\n        /* \"#utility.yul\":8227:8233   */\n      dup2\n        /* \"#utility.yul\":8224:8254   */\n      gt\n        /* \"#utility.yul\":8221:8338   */\n      iszero\n      tag_211\n      jumpi\n        /* \"#utility.yul\":8257:8336   */\n      tag_212\n      tag_88\n      jump\t// in\n    tag_212:\n        /* \"#utility.yul\":8221:8338   */\n    tag_211:\n        /* \"#utility.yul\":8362:8425   */\n      tag_213\n        /* \"#utility.yul\":8417:8424   */\n      dup9\n        /* \"#utility.yul\":8408:8414   */\n      dup3\n        /* \"#utility.yul\":8397:8406   */\n      dup10\n        /* \"#utility.yul\":8393:8415   */\n      add\n        /* \"#utility.yul\":8362:8425   */\n      tag_110\n      jump\t// in\n    tag_213:\n        /* \"#utility.yul\":8352:8425   */\n      swap4\n      pop\n        /* \"#utility.yul\":8147:8435   */\n      pop\n        /* \"#utility.yul\":8474:8476   */\n      0x60\n        /* \"#utility.yul\":8500:8553   */\n      tag_214\n        /* \"#utility.yul\":8545:8552   */\n      dup9\n        /* \"#utility.yul\":8536:8542   */\n      dup3\n        /* \"#utility.yul\":8525:8534   */\n      dup10\n        /* \"#utility.yul\":8521:8543   */\n      add\n        /* \"#utility.yul\":8500:8553   */\n      tag_91\n      jump\t// in\n    tag_214:\n        /* \"#utility.yul\":8490:8553   */\n      swap3\n      pop\n        /* \"#utility.yul\":8445:8563   */\n      pop\n        /* \"#utility.yul\":8602:8605   */\n      0x80\n        /* \"#utility.yul\":8629:8682   */\n      tag_215\n        /* \"#utility.yul\":8674:8681   */\n      dup9\n        /* \"#utility.yul\":8665:8671   */\n      dup3\n        /* \"#utility.yul\":8654:8663   */\n      dup10\n        /* \"#utility.yul\":8650:8672   */\n      add\n        /* \"#utility.yul\":8629:8682   */\n      tag_91\n      jump\t// in\n    tag_215:\n        /* \"#utility.yul\":8619:8682   */\n      swap2\n      pop\n        /* \"#utility.yul\":8573:8692   */\n      pop\n        /* \"#utility.yul\":7428:8699   */\n      swap3\n      swap6\n      pop\n      swap3\n      swap6\n      swap1\n      swap4\n      pop\n      jump\t// out\n        /* \"#utility.yul\":8705:8831   */\n    tag_111:\n        /* \"#utility.yul\":8742:8749   */\n      0x00\n        /* \"#utility.yul\":8782:8824   */\n      0xffffffffffffffffffffffffffffffffffffffff\n        /* \"#utility.yul\":8775:8780   */\n      dup3\n        /* \"#utility.yul\":8771:8825   */\n      and\n        /* \"#utility.yul\":8760:8825   */\n      swap1\n      pop\n        /* \"#utility.yul\":8705:8831   */\n      swap2\n      swap1\n      pop\n      jump\t// out\n        /* \"#utility.yul\":8837:8933   */\n    tag_112:\n        /* \"#utility.yul\":8874:8881   */\n      0x00\n        /* \"#utility.yul\":8903:8927   */\n      tag_218\n        /* \"#utility.yul\":8921:8926   */\n      dup3\n        /* \"#utility.yul\":8903:8927   */\n      tag_111\n      jump\t// in\n    tag_218:\n        /* \"#utility.yul\":8892:8927   */\n      swap1\n      pop\n        /* \"#utility.yul\":8837:8933   */\n      swap2\n      swap1\n      pop\n      jump\t// out\n        /* \"#utility.yul\":8939:9057   */\n    tag_113:\n        /* \"#utility.yul\":9026:9050   */\n      tag_220\n        /* \"#utility.yul\":9044:9049   */\n      dup2\n        /* \"#utility.yul\":9026:9050   */\n      tag_112\n      jump\t// in\n    tag_220:\n        /* \"#utility.yul\":9021:9024   */\n      dup3\n        /* \"#utility.yul\":9014:9051   */\n      mstore\n        /* \"#utility.yul\":8939:9057   */\n      pop\n      pop\n      jump\t// out\n        /* \"#utility.yul\":9063:9285   */\n    tag_29:\n        /* \"#utility.yul\":9156:9160   */\n      0x00\n        /* \"#utility.yul\":9194:9196   */\n      0x20\n        /* \"#utility.yul\":9183:9192   */\n      dup3\n        /* \"#utility.yul\":9179:9197   */\n      add\n        /* \"#utility.yul\":9171:9197   */\n      swap1\n      pop\n        /* \"#utility.yul\":9207:9278   */\n      tag_222\n        /* \"#utility.yul\":9275:9276   */\n      0x00\n        /* \"#utility.yul\":9264:9273   */\n      dup4\n        /* \"#utility.yul\":9260:9277   */\n      add\n        /* \"#utility.yul\":9251:9257   */\n      dup5\n        /* \"#utility.yul\":9207:9278   */\n      tag_113\n      jump\t// in\n    tag_222:\n        /* \"#utility.yul\":9063:9285   */\n      swap3\n      swap2\n      pop\n      pop\n      jump\t// out\n        /* \"#utility.yul\":9291:9413   */\n    tag_114:\n        /* \"#utility.yul\":9364:9388   */\n      tag_224\n        /* \"#utility.yul\":9382:9387   */\n      dup2\n        /* \"#utility.yul\":9364:9388   */\n      tag_112\n      jump\t// in\n    tag_224:\n        /* \"#utility.yul\":9357:9362   */\n      dup2\n        /* \"#utility.yul\":9354:9389   */\n      eq\n        /* \"#utility.yul\":9344:9407   */\n      tag_225\n      jumpi\n        /* \"#utility.yul\":9403:9404   */\n      0x00\n        /* \"#utility.yul\":9400:9401   */\n      0x00\n        /* \"#utility.yul\":9393:9405   */\n      revert\n        /* \"#utility.yul\":9344:9407   */\n    tag_225:\n        /* \"#utility.yul\":9291:9413   */\n      pop\n      jump\t// out\n        /* \"#utility.yul\":9419:9558   */\n    tag_115:\n        /* \"#utility.yul\":9465:9470   */\n      0x00\n        /* \"#utility.yul\":9503:9509   */\n      dup2\n        /* \"#utility.yul\":9490:9510   */\n      calldataload\n        /* \"#utility.yul\":9481:9510   */\n      swap1\n      pop\n        /* \"#utility.yul\":9519:9552   */\n      tag_227\n        /* \"#utility.yul\":9546:9551   */\n      dup2\n        /* \"#utility.yul\":9519:9552   */\n      tag_114\n      jump\t// in\n    tag_227:\n        /* \"#utility.yul\":9419:9558   */\n      swap3\n      swap2\n      pop\n      pop\n      jump\t// out\n        /* \"#utility.yul\":9564:9893   */\n    tag_32:\n        /* \"#utility.yul\":9623:9629   */\n      0x00\n        /* \"#utility.yul\":9672:9674   */\n      0x20\n        /* \"#utility.yul\":9660:9669   */\n      dup3\n        /* \"#utility.yul\":9651:9658   */\n      dup5\n        /* \"#utility.yul\":9647:9670   */\n      sub\n        /* \"#utility.yul\":9643:9675   */\n      slt\n        /* \"#utility.yul\":9640:9759   */\n      iszero\n      tag_229\n      jumpi\n        /* \"#utility.yul\":9678:9757   */\n      tag_230\n      tag_87\n      jump\t// in\n    tag_230:\n        /* \"#utility.yul\":9640:9759   */\n    tag_229:\n        /* \"#utility.yul\":9798:9799   */\n      0x00\n        /* \"#utility.yul\":9823:9876   */\n      tag_231\n        /* \"#utility.yul\":9868:9875   */\n      dup5\n        /* \"#utility.yul\":9859:9865   */\n      dup3\n        /* \"#utility.yul\":9848:9857   */\n      dup6\n        /* \"#utility.yul\":9844:9866   */\n      add\n        /* \"#utility.yul\":9823:9876   */\n      tag_115\n      jump\t// in\n    tag_231:\n        /* \"#utility.yul\":9813:9876   */\n      swap2\n      pop\n        /* \"#utility.yul\":9769:9886   */\n      pop\n        /* \"#utility.yul\":9564:9893   */\n      swap3\n      swap2\n      pop\n      pop\n      jump\t// out\n        /* \"#utility.yul\":9899:10079   */\n    tag_116:\n        /* \"#utility.yul\":9947:10024   */\n      0x4e487b7100000000000000000000000000000000000000000000000000000000\n        /* \"#utility.yul\":9944:9945   */\n      0x00\n        /* \"#utility.yul\":9937:10025   */\n      mstore\n        /* \"#utility.yul\":10044:10048   */\n      0x22\n        /* \"#utility.yul\":10041:10042   */\n      0x04\n        /* \"#utility.yul\":10034:10049   */\n      mstore\n        /* \"#utility.yul\":10068:10072   */\n      0x24\n        /* \"#utility.yul\":10065:10066   */\n      0x00\n        /* \"#utility.yul\":10058:10073   */\n      revert\n        /* \"#utility.yul\":10085:10405   */\n    tag_38:\n        /* \"#utility.yul\":10129:10135   */\n      0x00\n        /* \"#utility.yul\":10166:10167   */\n      0x02\n        /* \"#utility.yul\":10160:10164   */\n      dup3\n        /* \"#utility.yul\":10156:10168   */\n      div\n        /* \"#utility.yul\":10146:10168   */\n      swap1\n      pop\n        /* \"#utility.yul\":10213:10214   */\n      0x01\n        /* \"#utility.yul\":10207:10211   */\n      dup3\n        /* \"#utility.yul\":10203:10215   */\n      and\n        /* \"#utility.yul\":10234:10252   */\n      dup1\n        /* \"#utility.yul\":10224:10305   */\n      tag_234\n      jumpi\n        /* \"#utility.yul\":10290:10294   */\n      0x7f\n        /* \"#utility.yul\":10282:10288   */\n      dup3\n        /* \"#utility.yul\":10278:10295   */\n      and\n        /* \"#utility.yul\":10268:10295   */\n      swap2\n      pop\n        /* \"#utility.yul\":10224:10305   */\n    tag_234:\n        /* \"#utility.yul\":10352:10354   */\n      0x20\n        /* \"#utility.yul\":10344:10350   */\n      dup3\n        /* \"#utility.yul\":10341:10355   */\n      lt\n        /* \"#utility.yul\":10321:10339   */\n      dup2\n        /* \"#utility.yul\":10318:10356   */\n      sub\n        /* \"#utility.yul\":10315:10399   */\n      tag_235\n      jumpi\n        /* \"#utility.yul\":10371:10389   */\n      tag_236\n      tag_116\n      jump\t// in\n    tag_236:\n        /* \"#utility.yul\":10315:10399   */\n    tag_235:\n        /* \"#utility.yul\":10136:10405   */\n      pop\n        /* \"#utility.yul\":10085:10405   */\n      swap2\n      swap1\n      pop\n      jump\t// out\n        /* \"#utility.yul\":10411:10552   */\n    tag_117:\n        /* \"#utility.yul\":10460:10464   */\n      0x00\n        /* \"#utility.yul\":10483:10486   */\n      dup2\n        /* \"#utility.yul\":10475:10486   */\n      swap1\n      pop\n        /* \"#utility.yul\":10506:10509   */\n      dup2\n        /* \"#utility.yul\":10503:10504   */\n      0x00\n        /* \"#utility.yul\":10496:10510   */\n      mstore\n        /* \"#utility.yul\":10540:10544   */\n      0x20\n        /* \"#utility.yul\":10537:10538   */\n      0x00\n        /* \"#utility.yul\":10527:10545   */\n      keccak256\n        /* \"#utility.yul\":10519:10545   */\n      swap1\n      pop\n        /* \"#utility.yul\":10411:10552   */\n      swap2\n      swap1\n      pop\n      jump\t// out\n        /* \"#utility.yul\":10558:10651   */\n    tag_118:\n        /* \"#utility.yul\":10595:10601   */\n      0x00\n        /* \"#utility.yul\":10642:10644   */\n      0x20\n        /* \"#utility.yul\":10637:10639   */\n      0x1f\n        /* \"#utility.yul\":10630:10635   */\n      dup4\n        /* \"#utility.yul\":10626:10640   */\n      add\n        /* \"#utility.yul\":10622:10645   */\n      div\n        /* \"#utility.yul\":10612:10645   */\n      swap1\n      pop\n        /* \"#utility.yul\":10558:10651   */\n      swap2\n      swap1\n      pop\n      jump\t// out\n        /* \"#utility.yul\":10657:10764   */\n    tag_119:\n        /* \"#utility.yul\":10701:10709   */\n      0x00\n        /* \"#utility.yul\":10751:10756   */\n      dup3\n        /* \"#utility.yul\":10745:10749   */\n      dup3\n        /* \"#utility.yul\":10741:10757   */\n      shl\n        /* \"#utility.yul\":10720:10757   */\n      swap1\n      pop\n        /* \"#utility.yul\":10657:10764   */\n      swap3\n      swap2\n      pop\n      pop\n      jump\t// out\n        /* \"#utility.yul\":10770:11163   */\n    tag_120:\n        /* \"#utility.yul\":10839:10845   */\n      0x00\n        /* \"#utility.yul\":10889:10890   */\n      0x08\n        /* \"#utility.yul\":10877:10887   */\n      dup4\n        /* \"#utility.yul\":10873:10891   */\n      mul\n        /* \"#utility.yul\":10912:11009   */\n      tag_241\n        /* \"#utility.yul\":10942:11008   */\n      0xffffffffffffffffffffffffffffffffffffffffffffffffffffffffffffffff\n        /* \"#utility.yul\":10931:10940   */\n      dup3\n        /* \"#utility.yul\":10912:11009   */\n      tag_119\n      jump\t// in\n    tag_241:\n        /* \"#utility.yul\":11030:11069   */\n      tag_242\n        /* \"#utility.yul\":11060:11068   */\n      dup7\n        /* \"#utility.yul\":11049:11058   */\n      dup4\n        /* \"#utility.yul\":11030:11069   */\n      tag_119\n      jump\t// in\n    tag_242:\n        /* \"#utility.yul\":11018:11069   */\n      swap6\n      pop\n        /* \"#utility.yul\":11102:11106   */\n      dup1\n        /* \"#utility.yul\":11098:11107   */\n      not\n        /* \"#utility.yul\":11091:11096   */\n      dup5\n        /* \"#utility.yul\":11087:11108   */\n      and\n        /* \"#utility.yul\":11078:11108   */\n      swap4\n      pop\n        /* \"#utility.yul\":11151:11155   */\n      dup1\n        /* \"#utility.yul\":11141:11149   */\n      dup7\n        /* \"#utility.yul\":11137:11156   */\n      and\n        /* \"#utility.yul\":11130:11135   */\n      dup5\n        /* \"#utility.yul\":11127:11157   */\n      or\n        /* \"#utility.yul\":11117:11157   */\n      swap3\n      pop\n        /* \"#utility.yul\":10846:11163   */\n      pop\n      pop\n        /* \"#utility.yul\":10770:11163   */\n      swap4\n      swap3\n      pop\n      pop\n      pop\n      jump\t// out\n        /* \"#utility.yul\":11169:11229   */\n    tag_121:\n        /* \"#utility.yul\":11197:11200   */\n      0x00\n        /* \"#utility.yul\":11218:11223   */\n      dup2\n        /* \"#utility.yul\":11211:11223   */\n      swap1\n      pop\n        /* \"#utility.yul\":11169:11229   */\n      swap2\n      swap1\n      pop\n      jump\t// out\n        /* \"#utility.yul\":11235:11377   */\n    tag_122:\n        /* \"#utility.yul\":11285:11294   */\n      0x00\n        /* \"#utility.yul\":11318:11371   */\n      tag_245\n        /* \"#utility.yul\":11336:11370   */\n      tag_246\n        /* \"#utility.yul\":11345:11369   */\n      tag_247\n        /* \"#utility.yul\":11363:11368   */\n      dup5\n        /* \"#utility.yul\":11345:11369   */\n      tag_89\n      jump\t// in\n    tag_247:\n        /* \"#utility.yul\":11336:11370   */\n      tag_121\n      jump\t// in\n    tag_246:\n        /* \"#utility.yul\":11318:11371   */\n      tag_89\n      jump\t// in\n    tag_245:\n        /* \"#utility.yul\":11305:11371   */\n      swap1\n      pop\n        /* \"#utility.yul\":11235:11377   */\n      swap2\n      swap1\n      pop\n      jump\t// out\n        /* \"#utility.yul\":11383:11458   */\n    tag_123:\n        /* \"#utility.yul\":11426:11429   */\n      0x00\n        /* \"#utility.yul\":11447:11452   */\n      dup2\n        /* \"#utility.yul\":11440:11452   */\n      swap1\n      pop\n        /* \"#utility.yul\":11383:11458   */\n      swap2\n      swap1\n      pop\n      jump\t// out\n        /* \"#utility.yul\":11464:11733   */\n    tag_124:\n        /* \"#utility.yul\":11574:11613   */\n      tag_250\n        /* \"#utility.yul\":11605:11612   */\n      dup4\n        /* \"#utility.yul\":11574:11613   */\n      tag_122\n      jump\t// in\n    tag_250:\n        /* \"#utility.yul\":11635:11726   */\n      tag_251\n        /* \"#utility.yul\":11684:11725   */\n      tag_252\n        /* \"#utility.yul\":11708:11724   */\n      dup3\n        /* \"#utility.yul\":11684:11725   */\n      tag_123\n      jump\t// in\n    tag_252:\n        /* \"#utility.yul\":11676:11682   */\n      dup5\n        /* \"#utility.yul\":11669:11673   */\n      dup5\n        /* \"#utility.yul\":11663:11674   */\n      sload\n        /* \"#utility.yul\":11635:11726   */\n      tag_120\n      jump\t// in\n    tag_251:\n        /* \"#utility.yul\":11629:11633   */\n      dup3\n        /* \"#utility.yul\":11622:11727   */\n      sstore\n        /* \"#utility.yul\":11540:11733   */\n      pop\n        /* \"#utility.yul\":11464:11733   */\n      pop\n      pop\n      pop\n      jump\t// out\n        /* \"#utility.yul\":11739:11812   */\n    tag_125:\n        /* \"#utility.yul\":11784:11787   */\n      0x00\n        /* \"#utility.yul\":11805:11806   */\n      0x00\n        /* \"#utility.yul\":11798:11806   */\n      swap1\n      pop\n        /* \"#utility.yul\":11739:11812   */\n      swap1\n      jump\t// out\n        /* \"#utility.yul\":11818:12007   */\n    tag_126:\n        /* \"#utility.yul\":11895:11927   */\n      tag_255\n      tag_125\n      jump\t// in\n    tag_255:\n        /* \"#utility.yul\":11936:12001   */\n      tag_256\n        /* \"#utility.yul\":11994:12000   */\n      dup2\n        /* \"#utility.yul\":11986:11992   */\n      dup5\n        /* \"#utility.yul\":11980:11984   */\n      dup5\n        /* \"#utility.yul\":11936:12001   */\n      tag_124\n      jump\t// in\n    tag_256:\n        /* \"#utility.yul\":11871:12007   */\n      pop\n        /* \"#utility.yul\":11818:12007   */\n      pop\n      pop\n      jump\t// out\n        /* \"#utility.yul\":12013:12199   */\n    tag_127:\n        /* \"#utility.yul\":12073:12193   */\n    tag_258:\n        /* \"#utility.yul\":12090:12093   */\n      dup2\n        /* \"#utility.yul\":12083:12088   */\n      dup2\n        /* \"#utility.yul\":12080:12094   */\n      lt\n        /* \"#utility.yul\":12073:12193   */\n      iszero\n      tag_260\n      jumpi\n        /* \"#utility.yul\":12144:12183   */\n      tag_261\n        /* \"#utility.yul\":12181:12182   */\n      0x00\n        /* \"#utility.yul\":12174:12179   */\n      dup3\n        /* \"#utility.yul\":12144:12183   */\n      tag_126\n      jump\t// in\n    tag_261:\n        /* \"#utility.yul\":12117:12118   */\n      0x01\n        /* \"#utility.yul\":12110:12115   */\n      dup2\n        /* \"#utility.yul\":12106:12119   */\n      add\n        /* \"#utility.yul\":12097:12119   */\n      swap1\n      pop\n        /* \"#utility.yul\":12073:12193   */\n      jump(tag_258)\n    tag_260:\n        /* \"#utility.yul\":12013:12199   */\n      pop\n      pop\n      jump\t// out\n        /* \"#utility.yul\":12205:12748   */\n    tag_128:\n        /* \"#utility.yul\":12306:12308   */\n      0x1f\n        /* \"#utility.yul\":12301:12304   */\n      dup3\n        /* \"#utility.yul\":12298:12309   */\n      gt\n        /* \"#utility.yul\":12295:12741   */\n      iszero\n      tag_263\n      jumpi\n        /* \"#utility.yul\":12340:12378   */\n      tag_264\n        /* \"#utility.yul\":12372:12377   */\n      dup2\n        /* \"#utility.yul\":12340:12378   */\n      tag_117\n      jump\t// in\n    tag_264:\n        /* \"#utility.yul\":12424:12453   */\n      tag_265\n        /* \"#utility.yul\":12442:12452   */\n      dup5\n        /* \"#utility.yul\":12424:12453   */\n      tag_118\n      jump\t// in\n    tag_265:\n        /* \"#utility.yul\":12414:12422   */\n      dup2\n        /* \"#utility.yul\":12410:12454   */\n      add\n        /* \"#utility.yul\":12607:12609   */\n      0x20\n        /* \"#utility.yul\":12595:12605   */\n      dup6\n        /* \"#utility.yul\":12592:12610   */\n      lt\n        /* \"#utility.yul\":12589:12638   */\n      iszero\n      tag_266\n      jumpi\n        /* \"#utility.yul\":12628:12636   */\n      dup2\n        /* \"#utility.yul\":12613:12636   */\n      swap1\n      pop\n        /* \"#utility.yul\":12589:12638   */\n    tag_266:\n        /* \"#utility.yul\":12651:12731   */\n      tag_267\n        /* \"#utility.yul\":12707:12729   */\n      tag_268\n        /* \"#utility.yul\":12725:12728   */\n      dup6\n        /* \"#utility.yul\":12707:12729   */\n      tag_118\n      jump\t// in\n    tag_268:\n        /* \"#utility.yul\":12697:12705   */\n      dup4\n        /* \"#utility.yul\":12693:12730   */\n      add\n        /* \"#utility.yul\":12680:12691   */\n      dup3\n        /* \"#utility.yul\":12651:12731   */\n      tag_127\n      jump\t// in\n    tag_267:\n        /* \"#utility.yul\":12310:12741   */\n      pop\n      pop\n        /* \"#utility.yul\":12295:12741   */\n    tag_263:\n        /* \"#utility.yul\":12205:12748   */\n      pop\n      pop\n      pop\n      jump\t// out\n        /* \"#utility.yul\":12754:12871   */\n    tag_129:\n        /* \"#utility.yul\":12808:12816   */\n      0x00\n        /* \"#utility.yul\":12858:12863   */\n      dup3\n        /* \"#utility.yul\":12852:12856   */\n      dup3\n        /* \"#utility.yul\":12848:12864   */\n      shr\n        /* \"#utility.yul\":12827:12864   */\n      swap1\n      pop\n        /* \"#utility.yul\":12754:12871   */\n      swap3\n      swap2\n      pop\n      pop\n      jump\t// out\n        /* \"#utility.yul\":12877:13046   */\n    tag_130:\n        /* \"#utility.yul\":12921:12927   */\n      0x00\n        /* \"#utility.yul\":12954:13005   */\n      tag_271\n        /* \"#utility.yul\":13002:13003   */\n      0x00\n        /* \"#utility.yul\":12998:13004   */\n      not\n        /* \"#utility.yul\":12990:12995   */\n      dup5\n        /* \"#utility.yul\":12987:12988   */\n      0x08\n        /* \"#utility.yul\":12983:12996   */\n      mul\n        /* \"#utility.yul\":12954:13005   */\n      tag_129\n      jump\t// in\n    tag_271:\n        /* \"#utility.yul\":12950:13006   */\n      not\n        /* \"#utility.yul\":13035:13039   */\n      dup1\n        /* \"#utility.yul\":13029:13033   */\n      dup4\n        /* \"#utility.yul\":13025:13040   */\n      and\n        /* \"#utility.yul\":13015:13040   */\n      swap2\n      pop\n        /* \"#utility.yul\":12928:13046   */\n      pop\n        /* \"#utility.yul\":12877:13046   */\n      swap3\n      swap2\n      pop\n      pop\n      jump\t// out\n        /* \"#utility.yul\":13051:13346   */\n    tag_131:\n        /* \"#utility.yul\":13127:13131   */\n      0x00\n        /* \"#utility.yul\":13273:13302   */\n      tag_273\n        /* \"#utility.yul\":13298:13301   */\n      dup4\n        /* \"#utility.yul\":13292:13296   */\n      dup4\n        /* \"#utility.yul\":13273:13302   */\n      tag_130\n      jump\t// in\n    tag_273:\n        /* \"#utility.yul\":13265:13302   */\n      swap2\n      pop\n        /* \"#utility.yul\":13335:13338   */\n      dup3\n        /* \"#utility.yul\":13332:13333   */\n      0x02\n        /* \"#utility.yul\":13328:13339   */\n      mul\n        /* \"#utility.yul\":13322:13326   */\n      dup3\n        /* \"#utility.yul\":13319:13340   */\n      or\n        /* \"#utility.yul\":13311:13340   */\n      swap1\n      pop\n        /* \"#utility.yul\":13051:13346   */\n      swap3\n      swap2\n      pop\n      pop\n      jump\t// out\n        /* \"#utility.yul\":13351:14746   */\n    tag_63:\n        /* \"#utility.yul\":13468:13505   */\n      tag_275\n        /* \"#utility.yul\":13501:13504   */\n      dup3\n        /* \"#utility.yul\":13468:13505   */\n      tag_93\n      jump\t// in\n    tag_275:\n        /* \"#utility.yul\":13570:13588   */\n      0xffffffffffffffff\n        /* \"#utility.yul\":13562:13568   */\n      dup2\n        /* \"#utility.yul\":13559:13589   */\n      gt\n        /* \"#utility.yul\":13556:13612   */\n      iszero\n      tag_276\n      jumpi\n        /* \"#utility.yul\":13592:13610   */\n      tag_277\n      tag_104\n      jump\t// in\n    tag_277:\n        /* \"#utility.yul\":13556:13612   */\n    tag_276:\n        /* \"#utility.yul\":13636:13674   */\n      tag_278\n        /* \"#utility.yul\":13668:13672   */\n      dup3\n        /* \"#utility.yul\":13662:13673   */\n      sload\n        /* \"#utility.yul\":13636:13674   */\n      tag_38\n      jump\t// in\n    tag_278:\n        /* \"#utility.yul\":13721:13788   */\n      tag_279\n        /* \"#utility.yul\":13781:13787   */\n      dup3\n        /* \"#utility.yul\":13773:13779   */\n      dup3\n        /* \"#utility.yul\":13767:13771   */\n      dup6\n        /* \"#utility.yul\":13721:13788   */\n      tag_128\n      jump\t// in\n    tag_279:\n        /* \"#utility.yul\":13815:13816   */\n      0x00\n        /* \"#utility.yul\":13839:13843   */\n      0x20\n        /* \"#utility.yul\":13826:13843   */\n      swap1\n      pop\n        /* \"#utility.yul\":13871:13873   */\n      0x1f\n        /* \"#utility.yul\":13863:13869   */\n      dup4\n        /* \"#utility.yul\":13860:13874   */\n      gt\n        /* \"#utility.yul\":13888:13889   */\n      0x01\n        /* \"#utility.yul\":13883:14501   */\n      dup2\n      eq\n      tag_281\n      jumpi\n        /* \"#utility.yul\":14545:14546   */\n      0x00\n        /* \"#utility.yul\":14562:14568   */\n      dup5\n        /* \"#utility.yul\":14559:14636   */\n      iszero\n      tag_282\n      jumpi\n        /* \"#utility.yul\":14611:14620   */\n      dup3\n        /* \"#utility.yul\":14606:14609   */\n      dup8\n        /* \"#utility.yul\":14602:14621   */\n      add\n        /* \"#utility.yul\":14596:14622   */\n      mload\n        /* \"#utility.yul\":14587:14622   */\n      swap1\n      pop\n        /* \"#utility.yul\":14559:14636   */\n    tag_282:\n        /* \"#utility.yul\":14662:14729   */\n      tag_283\n        /* \"#utility.yul\":14722:14728   */\n      dup6\n        /* \"#utility.yul\":14715:14720   */\n      dup3\n        /* \"#utility.yul\":14662:14729   */\n      tag_131\n      jump\t// in\n    tag_283:\n        /* \"#utility.yul\":14656:14660   */\n      dup7\n        /* \"#utility.yul\":14649:14730   */\n      sstore\n        /* \"#utility.yul\":14518:14740   */\n      pop\n        /* \"#utility.yul\":13853:14740   */\n      jump(tag_280)\n        /* \"#utility.yul\":13883:14501   */\n    tag_281:\n        /* \"#utility.yul\":13935:13939   */\n      0x1f\n        /* \"#utility.yul\":13931:13940   */\n      not\n        /* \"#utility.yul\":13923:13929   */\n      dup5\n        /* \"#utility.yul\":13919:13941   */\n      and\n        /* \"#utility.yul\":13969:14006   */\n      tag_284\n        /* \"#utility.yul\":14001:14005   */\n      dup7\n        /* \"#utility.yul\":13969:14006   */\n      tag_117\n      jump\t// in\n    tag_284:\n        /* \"#utility.yul\":14028:14029   */\n      0x00\n        /* \"#utility.yul\":14042:14250   */\n    tag_285:\n        /* \"#utility.yul\":14056:14063   */\n      dup3\n        /* \"#utility.yul\":14053:14054   */\n      dup2\n        /* \"#utility.yul\":14050:14064   */\n      lt\n        /* \"#utility.yul\":14042:14250   */\n      iszero\n      tag_287\n      jumpi\n        /* \"#utility.yul\":14135:14144   */\n      dup5\n        /* \"#utility.yul\":14130:14133   */\n      dup10\n        /* \"#utility.yul\":14126:14145   */\n      add\n        /* \"#utility.yul\":14120:14146   */\n      mload\n        /* \"#utility.yul\":14112:14118   */\n      dup3\n        /* \"#utility.yul\":14105:14147   */\n      sstore\n        /* \"#utility.yul\":14186:14187   */\n      0x01\n        /* \"#utility.yul\":14178:14184   */\n      dup3\n        /* \"#utility.yul\":14174:14188   */\n      add\n        /* \"#utility.yul\":14164:14188   */\n      swap2\n      pop\n        /* \"#utility.yul\":14233:14235   */\n      0x20\n        /* \"#utility.yul\":14222:14231   */\n      dup6\n        /* \"#utility.yul\":14218:14236   */\n      add\n        /* \"#utility.yul\":14205:14236   */\n      swap5\n      pop\n        /* \"#utility.yul\":14079:14083   */\n      0x20\n        /* \"#utility.yul\":14076:14077   */\n      dup2\n        /* \"#utility.yul\":14072:14084   */\n      add\n        /* \"#utility.yul\":14067:14084   */\n      swap1\n      pop\n        /* \"#utility.yul\":14042:14250   */\n      jump(tag_285)\n    tag_287:\n        /* \"#utility.yul\":14278:14284   */\n      dup7\n        /* \"#utility.yul\":14269:14276   */\n      dup4\n        /* \"#utility.yul\":14266:14285   */\n      lt\n        /* \"#utility.yul\":14263:14442   */\n      iszero\n      tag_288\n      jumpi\n        /* \"#utility.yul\":14336:14345   */\n      dup5\n        /* \"#utility.yul\":14331:14334   */\n      dup10\n        /* \"#utility.yul\":14327:14346   */\n      add\n        /* \"#utility.yul\":14321:14347   */\n      mload\n        /* \"#utility.yul\":14379:14427   */\n      tag_289\n        /* \"#utility.yul\":14421:14425   */\n      0x1f\n        /* \"#utility.yul\":14413:14419   */\n      dup10\n        /* \"#utility.yul\":14409:14426   */\n      and\n        /* \"#utility.yul\":14398:14407   */\n      dup3\n        /* \"#utility.yul\":14379:14427   */\n      tag_130\n      jump\t// in\n    tag_289:\n        /* \"#utility.yul\":14371:14377   */\n      dup4\n        /* \"#utility.yul\":14364:14428   */\n      sstore\n        /* \"#utility.yul\":14286:14442   */\n      pop\n        /* \"#utility.yul\":14263:14442   */\n    tag_288:\n        /* \"#utility.yul\":14488:14489   */\n      0x01\n        /* \"#utility.yul\":14484:14485   */\n      0x02\n        /* \"#utility.yul\":14476:14482   */\n      dup9\n        /* \"#utility.yul\":14472:14486   */\n      mul\n        /* \"#utility.yul\":14468:14490   */\n      add\n        /* \"#utility.yul\":14462:14466   */\n      dup9\n        /* \"#utility.yul\":14455:14491   */\n      sstore\n        /* \"#utility.yul\":13890:14501   */\n      pop\n      pop\n      pop\n        /* \"#utility.yul\":13853:14740   */\n    tag_280:\n      pop\n        /* \"#utility.yul\":13443:14746   */\n      pop\n      pop\n      pop\n        /* \"#utility.yul\":13351:14746   */\n      pop\n      pop\n      jump\t// out\n\n    auxdata: 0xa26469706673582212204e5306f0a79660c6841f61db219fe94a9d2db5aae65634cc99afad31cc4e3f8564736f6c634300081c0033\n}\n",
				"bytecode": {
					"linkReferences": {},
					"object": "608060405234801561000f575f5ffd5b50335f73ffffffffffffffffffffffffffffffffffffffff168173ffffffffffffffffffffffffffffffffffffffff1603610081575f6040517f1e4fbdf70000000000000000000000000000000000000000000000000000000081526004016100789190610196565b60405180910390fd5b6100908161009660201b60201c565b506101af565b5f5f5f9054906101000a900473ffffffffffffffffffffffffffffffffffffffff169050815f5f6101000a81548173ffffffffffffffffffffffffffffffffffffffff021916908373ffffffffffffffffffffffffffffffffffffffff1602179055508173ffffffffffffffffffffffffffffffffffffffff168173ffffffffffffffffffffffffffffffffffffffff167f8be0079c531659141344cd1fd0a4f28419497f9722a3daafe3b4186f6b6457e060405160405180910390a35050565b5f73ffffffffffffffffffffffffffffffffffffffff82169050919050565b5f61018082610157565b9050919050565b61019081610176565b82525050565b5f6020820190506101a95f830184610187565b92915050565b610e6c806101bc5f395ff3fe608060405234801561000f575f5ffd5b5060043610610060575f3560e01c8063216655e214610064578063505858de146100945780636825060c146100c8578063715018a6146100e45780638da5cb5b146100ee578063f2fde38b1461010c575b5f5ffd5b61007e600480360381019061007991906106e8565b610128565b60405161008b919061080c565b60405180910390f35b6100ae60048036038101906100a991906106e8565b610290565b6040516100bf959493929190610883565b60405180910390f35b6100e260048036038101906100dd9190610a0e565b6103ce565b005b6100ec61046b565b005b6100f661047e565b6040516101039190610afc565b60405180910390f35b61012660048036038101906101219190610b3f565b6104a5565b005b610130610678565b60015f8381526020019081526020015f206040518060a00160405290815f820154815260200160018201805461016590610b97565b80601f016020809104026020016040519081016040528092919081815260200182805461019190610b97565b80156101dc5780601f106101b3576101008083540402835291602001916101dc565b820191905f5260205f20905b8154815290600101906020018083116101bf57829003601f168201915b505050505081526020016002820180546101f590610b97565b80601f016020809104026020016040519081016040528092919081815260200182805461022190610b97565b801561026c5780601f106102435761010080835404028352916020019161026c565b820191905f5260205f20905b81548152906001019060200180831161024f57829003601f168201915b50505050508152602001600382015481526020016004820154815250509050919050565b6001602052805f5260405f205f91509050805f0154908060010180546102b590610b97565b80601f01602080910402602001604051908101604052809291908181526020018280546102e190610b97565b801561032c5780601f106103035761010080835404028352916020019161032c565b820191905f5260205f20905b81548152906001019060200180831161030f57829003601f168201915b50505050509080600201805461034190610b97565b80601f016020809104026020016040519081016040528092919081815260200182805461036d90610b97565b80156103b85780601f1061038f576101008083540402835291602001916103b8565b820191905f5260205f20905b81548152906001019060200180831161039b57829003601f168201915b5050505050908060030154908060040154905085565b6103d6610529565b8460015f8781526020019081526020015f205f01819055508360015f8781526020019081526020015f20600101908161040f9190610d67565b508260015f8781526020019081526020015f2060020190816104319190610d67565b508160015f8781526020019081526020015f20600301819055508060015f8781526020019081526020015f20600401819055505050505050565b610473610529565b61047c5f6105b0565b565b5f5f5f9054906101000a900473ffffffffffffffffffffffffffffffffffffffff16905090565b6104ad610529565b5f73ffffffffffffffffffffffffffffffffffffffff168173ffffffffffffffffffffffffffffffffffffffff160361051d575f6040517f1e4fbdf70000000000000000000000000000000000000000000000000000000081526004016105149190610afc565b60405180910390fd5b610526816105b0565b50565b610531610671565b73ffffffffffffffffffffffffffffffffffffffff1661054f61047e565b73ffffffffffffffffffffffffffffffffffffffff16146105ae57610572610671565b6040517f118cdaa70000000000000000000000000000000000000000000000000000000081526004016105a59190610afc565b60405180910390fd5b565b5f5f5f9054906101000a900473ffffffffffffffffffffffffffffffffffffffff169050815f5f6101000a81548173ffffffffffffffffffffffffffffffffffffffff021916908373ffffffffffffffffffffffffffffffffffffffff1602179055508173ffffffffffffffffffffffffffffffffffffffff168173ffffffffffffffffffffffffffffffffffffffff167f8be0079c531659141344cd1fd0a4f28419497f9722a3daafe3b4186f6b6457e060405160405180910390a35050565b5f33905090565b6040518060a001604052805f815260200160608152602001606081526020015f81526020015f81525090565b5f604051905090565b5f5ffd5b5f5ffd5b5f819050919050565b6106c7816106b5565b81146106d1575f5ffd5b50565b5f813590506106e2816106be565b92915050565b5f602082840312156106fd576106fc6106ad565b5b5f61070a848285016106d4565b91505092915050565b61071c816106b5565b82525050565b5f81519050919050565b5f82825260208201905092915050565b8281835e5f83830152505050565b5f601f19601f8301169050919050565b5f61076482610722565b61076e818561072c565b935061077e81856020860161073c565b6107878161074a565b840191505092915050565b5f60a083015f8301516107a75f860182610713565b50602083015184820360208601526107bf828261075a565b915050604083015184820360408601526107d9828261075a565b91505060608301516107ee6060860182610713565b5060808301516108016080860182610713565b508091505092915050565b5f6020820190508181035f8301526108248184610792565b905092915050565b610835816106b5565b82525050565b5f82825260208201905092915050565b5f61085582610722565b61085f818561083b565b935061086f81856020860161073c565b6108788161074a565b840191505092915050565b5f60a0820190506108965f83018861082c565b81810360208301526108a8818761084b565b905081810360408301526108bc818661084b565b90506108cb606083018561082c565b6108d8608083018461082c565b9695505050505050565b5f5ffd5b5f5ffd5b7f4e487b71000000000000000000000000000000000000000000000000000000005f52604160045260245ffd5b6109208261074a565b810181811067ffffffffffffffff8211171561093f5761093e6108ea565b5b80604052505050565b5f6109516106a4565b905061095d8282610917565b919050565b5f67ffffffffffffffff82111561097c5761097b6108ea565b5b6109858261074a565b9050602081019050919050565b828183375f83830152505050565b5f6109b26109ad84610962565b610948565b9050828152602081018484840111156109ce576109cd6108e6565b5b6109d9848285610992565b509392505050565b5f82601f8301126109f5576109f46108e2565b5b8135610a058482602086016109a0565b91505092915050565b5f5f5f5f5f60a08688031215610a2757610a266106ad565b5b5f610a34888289016106d4565b955050602086013567ffffffffffffffff811115610a5557610a546106b1565b5b610a61888289016109e1565b945050604086013567ffffffffffffffff811115610a8257610a816106b1565b5b610a8e888289016109e1565b9350506060610a9f888289016106d4565b9250506080610ab0888289016106d4565b9150509295509295909350565b5f73ffffffffffffffffffffffffffffffffffffffff82169050919050565b5f610ae682610abd565b9050919050565b610af681610adc565b82525050565b5f602082019050610b0f5f830184610aed565b92915050565b610b1e81610adc565b8114610b28575f5ffd5b50565b5f81359050610b3981610b15565b92915050565b5f60208284031215610b5457610b536106ad565b5b5f610b6184828501610b2b565b91505092915050565b7f4e487b71000000000000000000000000000000000000000000000000000000005f52602260045260245ffd5b5f6002820490506001821680610bae57607f821691505b602082108103610bc157610bc0610b6a565b5b50919050565b5f819050815f5260205f209050919050565b5f6020601f8301049050919050565b5f82821b905092915050565b5f60088302610c237fffffffffffffffffffffffffffffffffffffffffffffffffffffffffffffffff82610be8565b610c2d8683610be8565b95508019841693508086168417925050509392505050565b5f819050919050565b5f610c68610c63610c5e846106b5565b610c45565b6106b5565b9050919050565b5f819050919050565b610c8183610c4e565b610c95610c8d82610c6f565b848454610bf4565b825550505050565b5f5f905090565b610cac610c9d565b610cb7818484610c78565b505050565b5b81811015610cda57610ccf5f82610ca4565b600181019050610cbd565b5050565b601f821115610d1f57610cf081610bc7565b610cf984610bd9565b81016020851015610d08578190505b610d1c610d1485610bd9565b830182610cbc565b50505b505050565b5f82821c905092915050565b5f610d3f5f1984600802610d24565b1980831691505092915050565b5f610d578383610d30565b9150826002028217905092915050565b610d7082610722565b67ffffffffffffffff811115610d8957610d886108ea565b5b610d938254610b97565b610d9e828285610cde565b5f60209050601f831160018114610dcf575f8415610dbd578287015190505b610dc78582610d4c565b865550610e2e565b601f198416610ddd86610bc7565b5f5b82811015610e0457848901518255600182019150602085019450602081019050610ddf565b86831015610e215784890151610e1d601f891682610d30565b8355505b6001600288020188555050505b50505050505056fea26469706673582212204e5306f0a79660c6841f61db219fe94a9d2db5aae65634cc99afad31cc4e3f8564736f6c634300081c0033",
					"opcodes": "PUSH1 0x80 PUSH1 0x40 MSTORE CALLVALUE DUP1 ISZERO PUSH2 0xF JUMPI PUSH0 PUSH0 REVERT JUMPDEST POP CALLER PUSH0 PUSH20 0xFFFFFFFFFFFFFFFFFFFFFFFFFFFFFFFFFFFFFFFF AND DUP2 PUSH20 0xFFFFFFFFFFFFFFFFFFFFFFFFFFFFFFFFFFFFFFFF AND SUB PUSH2 0x81 JUMPI PUSH0 PUSH1 0x40 MLOAD PUSH32 0x1E4FBDF700000000000000000000000000000000000000000000000000000000 DUP2 MSTORE PUSH1 0x4 ADD PUSH2 0x78 SWAP2 SWAP1 PUSH2 0x196 JUMP JUMPDEST PUSH1 0x40 MLOAD DUP1 SWAP2 SUB SWAP1 REVERT JUMPDEST PUSH2 0x90 DUP2 PUSH2 0x96 PUSH1 0x20 SHL PUSH1 0x20 SHR JUMP JUMPDEST POP PUSH2 0x1AF JUMP JUMPDEST PUSH0 PUSH0 PUSH0 SWAP1 SLOAD SWAP1 PUSH2 0x100 EXP SWAP1 DIV PUSH20 0xFFFFFFFFFFFFFFFFFFFFFFFFFFFFFFFFFFFFFFFF AND SWAP1 POP DUP2 PUSH0 PUSH0 PUSH2 0x100 EXP DUP2 SLOAD DUP2 PUSH20 0xFFFFFFFFFFFFFFFFFFFFFFFFFFFFFFFFFFFFFFFF MUL NOT AND SWAP1 DUP4 PUSH20 0xFFFFFFFFFFFFFFFFFFFFFFFFFFFFFFFFFFFFFFFF AND MUL OR SWAP1 SSTORE POP DUP2 PUSH20 0xFFFFFFFFFFFFFFFFFFFFFFFFFFFFFFFFFFFFFFFF AND DUP2 PUSH20 0xFFFFFFFFFFFFFFFFFFFFFFFFFFFFFFFFFFFFFFFF AND PUSH32 0x8BE0079C531659141344CD1FD0A4F28419497F9722A3DAAFE3B4186F6B6457E0 PUSH1 0x40 MLOAD PUSH1 0x40 MLOAD DUP1 SWAP2 SUB SWAP1 LOG3 POP POP JUMP JUMPDEST PUSH0 PUSH20 0xFFFFFFFFFFFFFFFFFFFFFFFFFFFFFFFFFFFFFFFF DUP3 AND SWAP1 POP SWAP2 SWAP1 POP JUMP JUMPDEST PUSH0 PUSH2 0x180 DUP3 PUSH2 0x157 JUMP JUMPDEST SWAP1 POP SWAP2 SWAP1 POP JUMP JUMPDEST PUSH2 0x190 DUP2 PUSH2 0x176 JUMP JUMPDEST DUP3 MSTORE POP POP JUMP JUMPDEST PUSH0 PUSH1 0x20 DUP3 ADD SWAP1 POP PUSH2 0x1A9 PUSH0 DUP4 ADD DUP5 PUSH2 0x187 JUMP JUMPDEST SWAP3 SWAP2 POP POP JUMP JUMPDEST PUSH2 0xE6C DUP1 PUSH2 0x1BC PUSH0 CODECOPY PUSH0 RETURN INVALID PUSH1 0x80 PUSH1 0x40 MSTORE CALLVALUE DUP1 ISZERO PUSH2 0xF JUMPI PUSH0 PUSH0 REVERT JUMPDEST POP PUSH1 0x4 CALLDATASIZE LT PUSH2 0x60 JUMPI PUSH0 CALLDATALOAD PUSH1 0xE0 SHR DUP1 PUSH4 0x216655E2 EQ PUSH2 0x64 JUMPI DUP1 PUSH4 0x505858DE EQ PUSH2 0x94 JUMPI DUP1 PUSH4 0x6825060C EQ PUSH2 0xC8 JUMPI DUP1 PUSH4 0x715018A6 EQ PUSH2 0xE4 JUMPI DUP1 PUSH4 0x8DA5CB5B EQ PUSH2 0xEE JUMPI DUP1 PUSH4 0xF2FDE38B EQ PUSH2 0x10C JUMPI JUMPDEST PUSH0 PUSH0 REVERT JUMPDEST PUSH2 0x7E PUSH1 0x4 DUP1 CALLDATASIZE SUB DUP2 ADD SWAP1 PUSH2 0x79 SWAP2 SWAP1 PUSH2 0x6E8 JUMP JUMPDEST PUSH2 0x128 JUMP JUMPDEST PUSH1 0x40 MLOAD PUSH2 0x8B SWAP2 SWAP1 PUSH2 0x80C JUMP JUMPDEST PUSH1 0x40 MLOAD DUP1 SWAP2 SUB SWAP1 RETURN JUMPDEST PUSH2 0xAE PUSH1 0x4 DUP1 CALLDATASIZE SUB DUP2 ADD SWAP1 PUSH2 0xA9 SWAP2 SWAP1 PUSH2 0x6E8 JUMP JUMPDEST PUSH2 0x290 JUMP JUMPDEST PUSH1 0x40 MLOAD PUSH2 0xBF SWAP6 SWAP5 SWAP4 SWAP3 SWAP2 SWAP1 PUSH2 0x883 JUMP JUMPDEST PUSH1 0x40 MLOAD DUP1 SWAP2 SUB SWAP1 RETURN JUMPDEST PUSH2 0xE2 PUSH1 0x4 DUP1 CALLDATASIZE SUB DUP2 ADD SWAP1 PUSH2 0xDD SWAP2 SWAP1 PUSH2 0xA0E JUMP JUMPDEST PUSH2 0x3CE JUMP JUMPDEST STOP JUMPDEST PUSH2 0xEC PUSH2 0x46B JUMP JUMPDEST STOP JUMPDEST PUSH2 0xF6 PUSH2 0x47E JUMP JUMPDEST PUSH1 0x40 MLOAD PUSH2 0x103 SWAP2 SWAP1 PUSH2 0xAFC JUMP JUMPDEST PUSH1 0x40 MLOAD DUP1 SWAP2 SUB SWAP1 RETURN JUMPDEST PUSH2 0x126 PUSH1 0x4 DUP1 CALLDATASIZE SUB DUP2 ADD SWAP1 PUSH2 0x121 SWAP2 SWAP1 PUSH2 0xB3F JUMP JUMPDEST PUSH2 0x4A5 JUMP JUMPDEST STOP JUMPDEST PUSH2 0x130 PUSH2 0x678 JUMP JUMPDEST PUSH1 0x1 PUSH0 DUP4 DUP2 MSTORE PUSH1 0x20 ADD SWAP1 DUP2 MSTORE PUSH1 0x20 ADD PUSH0 KECCAK256 PUSH1 0x40 MLOAD DUP1 PUSH1 0xA0 ADD PUSH1 0x40 MSTORE SWAP1 DUP2 PUSH0 DUP3 ADD SLOAD DUP2 MSTORE PUSH1 0x20 ADD PUSH1 0x1 DUP3 ADD DUP1 SLOAD PUSH2 0x165 SWAP1 PUSH2 0xB97 JUMP JUMPDEST DUP1 PUSH1 0x1F ADD PUSH1 0x20 DUP1 SWAP2 DIV MUL PUSH1 0x20 ADD PUSH1 0x40 MLOAD SWAP1 DUP2 ADD PUSH1 0x40 MSTORE DUP1 SWAP3 SWAP2 SWAP1 DUP2 DUP2 MSTORE PUSH1 0x20 ADD DUP3 DUP1 SLOAD PUSH2 0x191 SWAP1 PUSH2 0xB97 JUMP JUMPDEST DUP1 ISZERO PUSH2 0x1DC JUMPI DUP1 PUSH1 0x1F LT PUSH2 0x1B3 JUMPI PUSH2 0x100 DUP1 DUP4 SLOAD DIV MUL DUP4 MSTORE SWAP2 PUSH1 0x20 ADD SWAP2 PUSH2 0x1DC JUMP JUMPDEST DUP3 ADD SWAP2 SWAP1 PUSH0 MSTORE PUSH1 0x20 PUSH0 KECCAK256 SWAP1 JUMPDEST DUP2 SLOAD DUP2 MSTORE SWAP1 PUSH1 0x1 ADD SWAP1 PUSH1 0x20 ADD DUP1 DUP4 GT PUSH2 0x1BF JUMPI DUP3 SWAP1 SUB PUSH1 0x1F AND DUP3 ADD SWAP2 JUMPDEST POP POP POP POP POP DUP2 MSTORE PUSH1 0x20 ADD PUSH1 0x2 DUP3 ADD DUP1 SLOAD PUSH2 0x1F5 SWAP1 PUSH2 0xB97 JUMP JUMPDEST DUP1 PUSH1 0x1F ADD PUSH1 0x20 DUP1 SWAP2 DIV MUL PUSH1 0x20 ADD PUSH1 0x40 MLOAD SWAP1 DUP2 ADD PUSH1 0x40 MSTORE DUP1 SWAP3 SWAP2 SWAP1 DUP2 DUP2 MSTORE PUSH1 0x20 ADD DUP3 DUP1 SLOAD PUSH2 0x221 SWAP1 PUSH2 0xB97 JUMP JUMPDEST DUP1 ISZERO PUSH2 0x26C JUMPI DUP1 PUSH1 0x1F LT PUSH2 0x243 JUMPI PUSH2 0x100 DUP1 DUP4 SLOAD DIV MUL DUP4 MSTORE SWAP2 PUSH1 0x20 ADD SWAP2 PUSH2 0x26C JUMP JUMPDEST DUP3 ADD SWAP2 SWAP1 PUSH0 MSTORE PUSH1 0x20 PUSH0 KECCAK256 SWAP1 JUMPDEST DUP2 SLOAD DUP2 MSTORE SWAP1 PUSH1 0x1 ADD SWAP1 PUSH1 0x20 ADD DUP1 DUP4 GT PUSH2 0x24F JUMPI DUP3 SWAP1 SUB PUSH1 0x1F AND DUP3 ADD SWAP2 JUMPDEST POP POP POP POP POP DUP2 MSTORE PUSH1 0x20 ADD PUSH1 0x3 DUP3 ADD SLOAD DUP2 MSTORE PUSH1 0x20 ADD PUSH1 0x4 DUP3 ADD SLOAD DUP2 MSTORE POP POP SWAP1 POP SWAP2 SWAP1 POP JUMP JUMPDEST PUSH1 0x1 PUSH1 0x20 MSTORE DUP1 PUSH0 MSTORE PUSH1 0x40 PUSH0 KECCAK256 PUSH0 SWAP2 POP SWAP1 POP DUP1 PUSH0 ADD SLOAD SWAP1 DUP1 PUSH1 0x1 ADD DUP1 SLOAD PUSH2 0x2B5 SWAP1 PUSH2 0xB97 JUMP JUMPDEST DUP1 PUSH1 0x1F ADD PUSH1 0x20 DUP1 SWAP2 DIV MUL PUSH1 0x20 ADD PUSH1 0x40 MLOAD SWAP1 DUP2 ADD PUSH1 0x40 MSTORE DUP1 SWAP3 SWAP2 SWAP1 DUP2 DUP2 MSTORE PUSH1 0x20 ADD DUP3 DUP1 SLOAD PUSH2 0x2E1 SWAP1 PUSH2 0xB97 JUMP JUMPDEST DUP1 ISZERO PUSH2 0x32C JUMPI DUP1 PUSH1 0x1F LT PUSH2 0x303 JUMPI PUSH2 0x100 DUP1 DUP4 SLOAD DIV MUL DUP4 MSTORE SWAP2 PUSH1 0x20 ADD SWAP2 PUSH2 0x32C JUMP JUMPDEST DUP3 ADD SWAP2 SWAP1 PUSH0 MSTORE PUSH1 0x20 PUSH0 KECCAK256 SWAP1 JUMPDEST DUP2 SLOAD DUP2 MSTORE SWAP1 PUSH1 0x1 ADD SWAP1 PUSH1 0x20 ADD DUP1 DUP4 GT PUSH2 0x30F JUMPI DUP3 SWAP1 SUB PUSH1 0x1F AND DUP3 ADD SWAP2 JUMPDEST POP POP POP POP POP SWAP1 DUP1 PUSH1 0x2 ADD DUP1 SLOAD PUSH2 0x341 SWAP1 PUSH2 0xB97 JUMP JUMPDEST DUP1 PUSH1 0x1F ADD PUSH1 0x20 DUP1 SWAP2 DIV MUL PUSH1 0x20 ADD PUSH1 0x40 MLOAD SWAP1 DUP2 ADD PUSH1 0x40 MSTORE DUP1 SWAP3 SWAP2 SWAP1 DUP2 DUP2 MSTORE PUSH1 0x20 ADD DUP3 DUP1 SLOAD PUSH2 0x36D SWAP1 PUSH2 0xB97 JUMP JUMPDEST DUP1 ISZERO PUSH2 0x3B8 JUMPI DUP1 PUSH1 0x1F LT PUSH2 0x38F JUMPI PUSH2 0x100 DUP1 DUP4 SLOAD DIV MUL DUP4 MSTORE SWAP2 PUSH1 0x20 ADD SWAP2 PUSH2 0x3B8 JUMP JUMPDEST DUP3 ADD SWAP2 SWAP1 PUSH0 MSTORE PUSH1 0x20 PUSH0 KECCAK256 SWAP1 JUMPDEST DUP2 SLOAD DUP2 MSTORE SWAP1 PUSH1 0x1 ADD SWAP1 PUSH1 0x20 ADD DUP1 DUP4 GT PUSH2 0x39B JUMPI DUP3 SWAP1 SUB PUSH1 0x1F AND DUP3 ADD SWAP2 JUMPDEST POP POP POP POP POP SWAP1 DUP1 PUSH1 0x3 ADD SLOAD SWAP1 DUP1 PUSH1 0x4 ADD SLOAD SWAP1 POP DUP6 JUMP JUMPDEST PUSH2 0x3D6 PUSH2 0x529 JUMP JUMPDEST DUP5 PUSH1 0x1 PUSH0 DUP8 DUP2 MSTORE PUSH1 0x20 ADD SWAP1 DUP2 MSTORE PUSH1 0x20 ADD PUSH0 KECCAK256 PUSH0 ADD DUP2 SWAP1 SSTORE POP DUP4 PUSH1 0x1 PUSH0 DUP8 DUP2 MSTORE PUSH1 0x20 ADD SWAP1 DUP2 MSTORE PUSH1 0x20 ADD PUSH0 KECCAK256 PUSH1 0x1 ADD SWAP1 DUP2 PUSH2 0x40F SWAP2 SWAP1 PUSH2 0xD67 JUMP JUMPDEST POP DUP3 PUSH1 0x1 PUSH0 DUP8 DUP2 MSTORE PUSH1 0x20 ADD SWAP1 DUP2 MSTORE PUSH1 0x20 ADD PUSH0 KECCAK256 PUSH1 0x2 ADD SWAP1 DUP2 PUSH2 0x431 SWAP2 SWAP1 PUSH2 0xD67 JUMP JUMPDEST POP DUP2 PUSH1 0x1 PUSH0 DUP8 DUP2 MSTORE PUSH1 0x20 ADD SWAP1 DUP2 MSTORE PUSH1 0x20 ADD PUSH0 KECCAK256 PUSH1 0x3 ADD DUP2 SWAP1 SSTORE POP DUP1 PUSH1 0x1 PUSH0 DUP8 DUP2 MSTORE PUSH1 0x20 ADD SWAP1 DUP2 MSTORE PUSH1 0x20 ADD PUSH0 KECCAK256 PUSH1 0x4 ADD DUP2 SWAP1 SSTORE POP POP POP POP POP POP JUMP JUMPDEST PUSH2 0x473 PUSH2 0x529 JUMP JUMPDEST PUSH2 0x47C PUSH0 PUSH2 0x5B0 JUMP JUMPDEST JUMP JUMPDEST PUSH0 PUSH0 PUSH0 SWAP1 SLOAD SWAP1 PUSH2 0x100 EXP SWAP1 DIV PUSH20 0xFFFFFFFFFFFFFFFFFFFFFFFFFFFFFFFFFFFFFFFF AND SWAP1 POP SWAP1 JUMP JUMPDEST PUSH2 0x4AD PUSH2 0x529 JUMP JUMPDEST PUSH0 PUSH20 0xFFFFFFFFFFFFFFFFFFFFFFFFFFFFFFFFFFFFFFFF AND DUP2 PUSH20 0xFFFFFFFFFFFFFFFFFFFFFFFFFFFFFFFFFFFFFFFF AND SUB PUSH2 0x51D JUMPI PUSH0 PUSH1 0x40 MLOAD PUSH32 0x1E4FBDF700000000000000000000000000000000000000000000000000000000 DUP2 MSTORE PUSH1 0x4 ADD PUSH2 0x514 SWAP2 SWAP1 PUSH2 0xAFC JUMP JUMPDEST PUSH1 0x40 MLOAD DUP1 SWAP2 SUB SWAP1 REVERT JUMPDEST PUSH2 0x526 DUP2 PUSH2 0x5B0 JUMP JUMPDEST POP JUMP JUMPDEST PUSH2 0x531 PUSH2 0x671 JUMP JUMPDEST PUSH20 0xFFFFFFFFFFFFFFFFFFFFFFFFFFFFFFFFFFFFFFFF AND PUSH2 0x54F PUSH2 0x47E JUMP JUMPDEST PUSH20 0xFFFFFFFFFFFFFFFFFFFFFFFFFFFFFFFFFFFFFFFF AND EQ PUSH2 0x5AE JUMPI PUSH2 0x572 PUSH2 0x671 JUMP JUMPDEST PUSH1 0x40 MLOAD PUSH32 0x118CDAA700000000000000000000000000000000000000000000000000000000 DUP2 MSTORE PUSH1 0x4 ADD PUSH2 0x5A5 SWAP2 SWAP1 PUSH2 0xAFC JUMP JUMPDEST PUSH1 0x40 MLOAD DUP1 SWAP2 SUB SWAP1 REVERT JUMPDEST JUMP JUMPDEST PUSH0 PUSH0 PUSH0 SWAP1 SLOAD SWAP1 PUSH2 0x100 EXP SWAP1 DIV PUSH20 0xFFFFFFFFFFFFFFFFFFFFFFFFFFFFFFFFFFFFFFFF AND SWAP1 POP DUP2 PUSH0 PUSH0 PUSH2 0x100 EXP DUP2 SLOAD DUP2 PUSH20 0xFFFFFFFFFFFFFFFFFFFFFFFFFFFFFFFFFFFFFFFF MUL NOT AND SWAP1 DUP4 PUSH20 0xFFFFFFFFFFFFFFFFFFFFFFFFFFFFFFFFFFFFFFFF AND MUL OR SWAP1 SSTORE POP DUP2 PUSH20 0xFFFFFFFFFFFFFFFFFFFFFFFFFFFFFFFFFFFFFFFF AND DUP2 PUSH20 0xFFFFFFFFFFFFFFFFFFFFFFFFFFFFFFFFFFFFFFFF AND PUSH32 0x8BE0079C531659141344CD1FD0A4F28419497F9722A3DAAFE3B4186F6B6457E0 PUSH1 0x40 MLOAD PUSH1 0x40 MLOAD DUP1 SWAP2 SUB SWAP1 LOG3 POP POP JUMP JUMPDEST PUSH0 CALLER SWAP1 POP SWAP1 JUMP JUMPDEST PUSH1 0x40 MLOAD DUP1 PUSH1 0xA0 ADD PUSH1 0x40 MSTORE DUP1 PUSH0 DUP2 MSTORE PUSH1 0x20 ADD PUSH1 0x60 DUP2 MSTORE PUSH1 0x20 ADD PUSH1 0x60 DUP2 MSTORE PUSH1 0x20 ADD PUSH0 DUP2 MSTORE PUSH1 0x20 ADD PUSH0 DUP2 MSTORE POP SWAP1 JUMP JUMPDEST PUSH0 PUSH1 0x40 MLOAD SWAP1 POP SWAP1 JUMP JUMPDEST PUSH0 PUSH0 REVERT JUMPDEST PUSH0 PUSH0 REVERT JUMPDEST PUSH0 DUP2 SWAP1 POP SWAP2 SWAP1 POP JUMP JUMPDEST PUSH2 0x6C7 DUP2 PUSH2 0x6B5 JUMP JUMPDEST DUP2 EQ PUSH2 0x6D1 JUMPI PUSH0 PUSH0 REVERT JUMPDEST POP JUMP JUMPDEST PUSH0 DUP2 CALLDATALOAD SWAP1 POP PUSH2 0x6E2 DUP2 PUSH2 0x6BE JUMP JUMPDEST SWAP3 SWAP2 POP POP JUMP JUMPDEST PUSH0 PUSH1 0x20 DUP3 DUP5 SUB SLT ISZERO PUSH2 0x6FD JUMPI PUSH2 0x6FC PUSH2 0x6AD JUMP JUMPDEST JUMPDEST PUSH0 PUSH2 0x70A DUP5 DUP3 DUP6 ADD PUSH2 0x6D4 JUMP JUMPDEST SWAP2 POP POP SWAP3 SWAP2 POP POP JUMP JUMPDEST PUSH2 0x71C DUP2 PUSH2 0x6B5 JUMP JUMPDEST DUP3 MSTORE POP POP JUMP JUMPDEST PUSH0 DUP2 MLOAD SWAP1 POP SWAP2 SWAP1 POP JUMP JUMPDEST PUSH0 DUP3 DUP3 MSTORE PUSH1 0x20 DUP3 ADD SWAP1 POP SWAP3 SWAP2 POP POP JUMP JUMPDEST DUP3 DUP2 DUP4 MCOPY PUSH0 DUP4 DUP4 ADD MSTORE POP POP POP JUMP JUMPDEST PUSH0 PUSH1 0x1F NOT PUSH1 0x1F DUP4 ADD AND SWAP1 POP SWAP2 SWAP1 POP JUMP JUMPDEST PUSH0 PUSH2 0x764 DUP3 PUSH2 0x722 JUMP JUMPDEST PUSH2 0x76E DUP2 DUP6 PUSH2 0x72C JUMP JUMPDEST SWAP4 POP PUSH2 0x77E DUP2 DUP6 PUSH1 0x20 DUP7 ADD PUSH2 0x73C JUMP JUMPDEST PUSH2 0x787 DUP2 PUSH2 0x74A JUMP JUMPDEST DUP5 ADD SWAP2 POP POP SWAP3 SWAP2 POP POP JUMP JUMPDEST PUSH0 PUSH1 0xA0 DUP4 ADD PUSH0 DUP4 ADD MLOAD PUSH2 0x7A7 PUSH0 DUP7 ADD DUP3 PUSH2 0x713 JUMP JUMPDEST POP PUSH1 0x20 DUP4 ADD MLOAD DUP5 DUP3 SUB PUSH1 0x20 DUP7 ADD MSTORE PUSH2 0x7BF DUP3 DUP3 PUSH2 0x75A JUMP JUMPDEST SWAP2 POP POP PUSH1 0x40 DUP4 ADD MLOAD DUP5 DUP3 SUB PUSH1 0x40 DUP7 ADD MSTORE PUSH2 0x7D9 DUP3 DUP3 PUSH2 0x75A JUMP JUMPDEST SWAP2 POP POP PUSH1 0x60 DUP4 ADD MLOAD PUSH2 0x7EE PUSH1 0x60 DUP7 ADD DUP3 PUSH2 0x713 JUMP JUMPDEST POP PUSH1 0x80 DUP4 ADD MLOAD PUSH2 0x801 PUSH1 0x80 DUP7 ADD DUP3 PUSH2 0x713 JUMP JUMPDEST POP DUP1 SWAP2 POP POP SWAP3 SWAP2 POP POP JUMP JUMPDEST PUSH0 PUSH1 0x20 DUP3 ADD SWAP1 POP DUP2 DUP2 SUB PUSH0 DUP4 ADD MSTORE PUSH2 0x824 DUP2 DUP5 PUSH2 0x792 JUMP JUMPDEST SWAP1 POP SWAP3 SWAP2 POP POP JUMP JUMPDEST PUSH2 0x835 DUP2 PUSH2 0x6B5 JUMP JUMPDEST DUP3 MSTORE POP POP JUMP JUMPDEST PUSH0 DUP3 DUP3 MSTORE PUSH1 0x20 DUP3 ADD SWAP1 POP SWAP3 SWAP2 POP POP JUMP JUMPDEST PUSH0 PUSH2 0x855 DUP3 PUSH2 0x722 JUMP JUMPDEST PUSH2 0x85F DUP2 DUP6 PUSH2 0x83B JUMP JUMPDEST SWAP4 POP PUSH2 0x86F DUP2 DUP6 PUSH1 0x20 DUP7 ADD PUSH2 0x73C JUMP JUMPDEST PUSH2 0x878 DUP2 PUSH2 0x74A JUMP JUMPDEST DUP5 ADD SWAP2 POP POP SWAP3 SWAP2 POP POP JUMP JUMPDEST PUSH0 PUSH1 0xA0 DUP3 ADD SWAP1 POP PUSH2 0x896 PUSH0 DUP4 ADD DUP9 PUSH2 0x82C JUMP JUMPDEST DUP2 DUP2 SUB PUSH1 0x20 DUP4 ADD MSTORE PUSH2 0x8A8 DUP2 DUP8 PUSH2 0x84B JUMP JUMPDEST SWAP1 POP DUP2 DUP2 SUB PUSH1 0x40 DUP4 ADD MSTORE PUSH2 0x8BC DUP2 DUP7 PUSH2 0x84B JUMP JUMPDEST SWAP1 POP PUSH2 0x8CB PUSH1 0x60 DUP4 ADD DUP6 PUSH2 0x82C JUMP JUMPDEST PUSH2 0x8D8 PUSH1 0x80 DUP4 ADD DUP5 PUSH2 0x82C JUMP JUMPDEST SWAP7 SWAP6 POP POP POP POP POP POP JUMP JUMPDEST PUSH0 PUSH0 REVERT JUMPDEST PUSH0 PUSH0 REVERT JUMPDEST PUSH32 0x4E487B7100000000000000000000000000000000000000000000000000000000 PUSH0 MSTORE PUSH1 0x41 PUSH1 0x4 MSTORE PUSH1 0x24 PUSH0 REVERT JUMPDEST PUSH2 0x920 DUP3 PUSH2 0x74A JUMP JUMPDEST DUP2 ADD DUP2 DUP2 LT PUSH8 0xFFFFFFFFFFFFFFFF DUP3 GT OR ISZERO PUSH2 0x93F JUMPI PUSH2 0x93E PUSH2 0x8EA JUMP JUMPDEST JUMPDEST DUP1 PUSH1 0x40 MSTORE POP POP POP JUMP JUMPDEST PUSH0 PUSH2 0x951 PUSH2 0x6A4 JUMP JUMPDEST SWAP1 POP PUSH2 0x95D DUP3 DUP3 PUSH2 0x917 JUMP JUMPDEST SWAP2 SWAP1 POP JUMP JUMPDEST PUSH0 PUSH8 0xFFFFFFFFFFFFFFFF DUP3 GT ISZERO PUSH2 0x97C JUMPI PUSH2 0x97B PUSH2 0x8EA JUMP JUMPDEST JUMPDEST PUSH2 0x985 DUP3 PUSH2 0x74A JUMP JUMPDEST SWAP1 POP PUSH1 0x20 DUP2 ADD SWAP1 POP SWAP2 SWAP1 POP JUMP JUMPDEST DUP3 DUP2 DUP4 CALLDATACOPY PUSH0 DUP4 DUP4 ADD MSTORE POP POP POP JUMP JUMPDEST PUSH0 PUSH2 0x9B2 PUSH2 0x9AD DUP5 PUSH2 0x962 JUMP JUMPDEST PUSH2 0x948 JUMP JUMPDEST SWAP1 POP DUP3 DUP2 MSTORE PUSH1 0x20 DUP2 ADD DUP5 DUP5 DUP5 ADD GT ISZERO PUSH2 0x9CE JUMPI PUSH2 0x9CD PUSH2 0x8E6 JUMP JUMPDEST JUMPDEST PUSH2 0x9D9 DUP5 DUP3 DUP6 PUSH2 0x992 JUMP JUMPDEST POP SWAP4 SWAP3 POP POP POP JUMP JUMPDEST PUSH0 DUP3 PUSH1 0x1F DUP4 ADD SLT PUSH2 0x9F5 JUMPI PUSH2 0x9F4 PUSH2 0x8E2 JUMP JUMPDEST JUMPDEST DUP2 CALLDATALOAD PUSH2 0xA05 DUP5 DUP3 PUSH1 0x20 DUP7 ADD PUSH2 0x9A0 JUMP JUMPDEST SWAP2 POP POP SWAP3 SWAP2 POP POP JUMP JUMPDEST PUSH0 PUSH0 PUSH0 PUSH0 PUSH0 PUSH1 0xA0 DUP7 DUP9 SUB SLT ISZERO PUSH2 0xA27 JUMPI PUSH2 0xA26 PUSH2 0x6AD JUMP JUMPDEST JUMPDEST PUSH0 PUSH2 0xA34 DUP9 DUP3 DUP10 ADD PUSH2 0x6D4 JUMP JUMPDEST SWAP6 POP POP PUSH1 0x20 DUP7 ADD CALLDATALOAD PUSH8 0xFFFFFFFFFFFFFFFF DUP2 GT ISZERO PUSH2 0xA55 JUMPI PUSH2 0xA54 PUSH2 0x6B1 JUMP JUMPDEST JUMPDEST PUSH2 0xA61 DUP9 DUP3 DUP10 ADD PUSH2 0x9E1 JUMP JUMPDEST SWAP5 POP POP PUSH1 0x40 DUP7 ADD CALLDATALOAD PUSH8 0xFFFFFFFFFFFFFFFF DUP2 GT ISZERO PUSH2 0xA82 JUMPI PUSH2 0xA81 PUSH2 0x6B1 JUMP JUMPDEST JUMPDEST PUSH2 0xA8E DUP9 DUP3 DUP10 ADD PUSH2 0x9E1 JUMP JUMPDEST SWAP4 POP POP PUSH1 0x60 PUSH2 0xA9F DUP9 DUP3 DUP10 ADD PUSH2 0x6D4 JUMP JUMPDEST SWAP3 POP POP PUSH1 0x80 PUSH2 0xAB0 DUP9 DUP3 DUP10 ADD PUSH2 0x6D4 JUMP JUMPDEST SWAP2 POP POP SWAP3 SWAP6 POP SWAP3 SWAP6 SWAP1 SWAP4 POP JUMP JUMPDEST PUSH0 PUSH20 0xFFFFFFFFFFFFFFFFFFFFFFFFFFFFFFFFFFFFFFFF DUP3 AND SWAP1 POP SWAP2 SWAP1 POP JUMP JUMPDEST PUSH0 PUSH2 0xAE6 DUP3 PUSH2 0xABD JUMP JUMPDEST SWAP1 POP SWAP2 SWAP1 POP JUMP JUMPDEST PUSH2 0xAF6 DUP2 PUSH2 0xADC JUMP JUMPDEST DUP3 MSTORE POP POP JUMP JUMPDEST PUSH0 PUSH1 0x20 DUP3 ADD SWAP1 POP PUSH2 0xB0F PUSH0 DUP4 ADD DUP5 PUSH2 0xAED JUMP JUMPDEST SWAP3 SWAP2 POP POP JUMP JUMPDEST PUSH2 0xB1E DUP2 PUSH2 0xADC JUMP JUMPDEST DUP2 EQ PUSH2 0xB28 JUMPI PUSH0 PUSH0 REVERT JUMPDEST POP JUMP JUMPDEST PUSH0 DUP2 CALLDATALOAD SWAP1 POP PUSH2 0xB39 DUP2 PUSH2 0xB15 JUMP JUMPDEST SWAP3 SWAP2 POP POP JUMP JUMPDEST PUSH0 PUSH1 0x20 DUP3 DUP5 SUB SLT ISZERO PUSH2 0xB54 JUMPI PUSH2 0xB53 PUSH2 0x6AD JUMP JUMPDEST JUMPDEST PUSH0 PUSH2 0xB61 DUP5 DUP3 DUP6 ADD PUSH2 0xB2B JUMP JUMPDEST SWAP2 POP POP SWAP3 SWAP2 POP POP JUMP JUMPDEST PUSH32 0x4E487B7100000000000000000000000000000000000000000000000000000000 PUSH0 MSTORE PUSH1 0x22 PUSH1 0x4 MSTORE PUSH1 0x24 PUSH0 REVERT JUMPDEST PUSH0 PUSH1 0x2 DUP3 DIV SWAP1 POP PUSH1 0x1 DUP3 AND DUP1 PUSH2 0xBAE JUMPI PUSH1 0x7F DUP3 AND SWAP2 POP JUMPDEST PUSH1 0x20 DUP3 LT DUP2 SUB PUSH2 0xBC1 JUMPI PUSH2 0xBC0 PUSH2 0xB6A JUMP JUMPDEST JUMPDEST POP SWAP2 SWAP1 POP JUMP JUMPDEST PUSH0 DUP2 SWAP1 POP DUP2 PUSH0 MSTORE PUSH1 0x20 PUSH0 KECCAK256 SWAP1 POP SWAP2 SWAP1 POP JUMP JUMPDEST PUSH0 PUSH1 0x20 PUSH1 0x1F DUP4 ADD DIV SWAP1 POP SWAP2 SWAP1 POP JUMP JUMPDEST PUSH0 DUP3 DUP3 SHL SWAP1 POP SWAP3 SWAP2 POP POP JUMP JUMPDEST PUSH0 PUSH1 0x8 DUP4 MUL PUSH2 0xC23 PUSH32 0xFFFFFFFFFFFFFFFFFFFFFFFFFFFFFFFFFFFFFFFFFFFFFFFFFFFFFFFFFFFFFFFF DUP3 PUSH2 0xBE8 JUMP JUMPDEST PUSH2 0xC2D DUP7 DUP4 PUSH2 0xBE8 JUMP JUMPDEST SWAP6 POP DUP1 NOT DUP5 AND SWAP4 POP DUP1 DUP7 AND DUP5 OR SWAP3 POP POP POP SWAP4 SWAP3 POP POP POP JUMP JUMPDEST PUSH0 DUP2 SWAP1 POP SWAP2 SWAP1 POP JUMP JUMPDEST PUSH0 PUSH2 0xC68 PUSH2 0xC63 PUSH2 0xC5E DUP5 PUSH2 0x6B5 JUMP JUMPDEST PUSH2 0xC45 JUMP JUMPDEST PUSH2 0x6B5 JUMP JUMPDEST SWAP1 POP SWAP2 SWAP1 POP JUMP JUMPDEST PUSH0 DUP2 SWAP1 POP SWAP2 SWAP1 POP JUMP JUMPDEST PUSH2 0xC81 DUP4 PUSH2 0xC4E JUMP JUMPDEST PUSH2 0xC95 PUSH2 0xC8D DUP3 PUSH2 0xC6F JUMP JUMPDEST DUP5 DUP5 SLOAD PUSH2 0xBF4 JUMP JUMPDEST DUP3 SSTORE POP POP POP POP JUMP JUMPDEST PUSH0 PUSH0 SWAP1 POP SWAP1 JUMP JUMPDEST PUSH2 0xCAC PUSH2 0xC9D JUMP JUMPDEST PUSH2 0xCB7 DUP2 DUP5 DUP5 PUSH2 0xC78 JUMP JUMPDEST POP POP POP JUMP JUMPDEST JUMPDEST DUP2 DUP2 LT ISZERO PUSH2 0xCDA JUMPI PUSH2 0xCCF PUSH0 DUP3 PUSH2 0xCA4 JUMP JUMPDEST PUSH1 0x1 DUP2 ADD SWAP1 POP PUSH2 0xCBD JUMP JUMPDEST POP POP JUMP JUMPDEST PUSH1 0x1F DUP3 GT ISZERO PUSH2 0xD1F JUMPI PUSH2 0xCF0 DUP2 PUSH2 0xBC7 JUMP JUMPDEST PUSH2 0xCF9 DUP5 PUSH2 0xBD9 JUMP JUMPDEST DUP2 ADD PUSH1 0x20 DUP6 LT ISZERO PUSH2 0xD08 JUMPI DUP2 SWAP1 POP JUMPDEST PUSH2 0xD1C PUSH2 0xD14 DUP6 PUSH2 0xBD9 JUMP JUMPDEST DUP4 ADD DUP3 PUSH2 0xCBC JUMP JUMPDEST POP POP JUMPDEST POP POP POP JUMP JUMPDEST PUSH0 DUP3 DUP3 SHR SWAP1 POP SWAP3 SWAP2 POP POP JUMP JUMPDEST PUSH0 PUSH2 0xD3F PUSH0 NOT DUP5 PUSH1 0x8 MUL PUSH2 0xD24 JUMP JUMPDEST NOT DUP1 DUP4 AND SWAP2 POP POP SWAP3 SWAP2 POP POP JUMP JUMPDEST PUSH0 PUSH2 0xD57 DUP4 DUP4 PUSH2 0xD30 JUMP JUMPDEST SWAP2 POP DUP3 PUSH1 0x2 MUL DUP3 OR SWAP1 POP SWAP3 SWAP2 POP POP JUMP JUMPDEST PUSH2 0xD70 DUP3 PUSH2 0x722 JUMP JUMPDEST PUSH8 0xFFFFFFFFFFFFFFFF DUP2 GT ISZERO PUSH2 0xD89 JUMPI PUSH2 0xD88 PUSH2 0x8EA JUMP JUMPDEST JUMPDEST PUSH2 0xD93 DUP3 SLOAD PUSH2 0xB97 JUMP JUMPDEST PUSH2 0xD9E DUP3 DUP3 DUP6 PUSH2 0xCDE JUMP JUMPDEST PUSH0 PUSH1 0x20 SWAP1 POP PUSH1 0x1F DUP4 GT PUSH1 0x1 DUP2 EQ PUSH2 0xDCF JUMPI PUSH0 DUP5 ISZERO PUSH2 0xDBD JUMPI DUP3 DUP8 ADD MLOAD SWAP1 POP JUMPDEST PUSH2 0xDC7 DUP6 DUP3 PUSH2 0xD4C JUMP JUMPDEST DUP7 SSTORE POP PUSH2 0xE2E JUMP JUMPDEST PUSH1 0x1F NOT DUP5 AND PUSH2 0xDDD DUP7 PUSH2 0xBC7 JUMP JUMPDEST PUSH0 JUMPDEST DUP3 DUP2 LT ISZERO PUSH2 0xE04 JUMPI DUP5 DUP10 ADD MLOAD DUP3 SSTORE PUSH1 0x1 DUP3 ADD SWAP2 POP PUSH1 0x20 DUP6 ADD SWAP5 POP PUSH1 0x20 DUP2 ADD SWAP1 POP PUSH2 0xDDF JUMP JUMPDEST DUP7 DUP4 LT ISZERO PUSH2 0xE21 JUMPI DUP5 DUP10 ADD MLOAD PUSH2 0xE1D PUSH1 0x1F DUP10 AND DUP3 PUSH2 0xD30 JUMP JUMPDEST DUP4 SSTORE POP JUMPDEST PUSH1 0x1 PUSH1 0x2 DUP9 MUL ADD DUP9 SSTORE POP POP POP JUMPDEST POP POP POP POP POP POP JUMP INVALID LOG2 PUSH5 0x6970667358 0x22 SLT KECCAK256 0x4E MSTORE8 MOD CREATE 0xA7 SWAP7 PUSH1 0xC6 DUP5 0x1F PUSH2 0xDB21 SWAP16 0xE9 BLOBBASEFEE SWAP14 0x2D 0xB5 0xAA 0xE6 JUMP CALLVALUE 0xCC SWAP10 0xAF 0xAD BALANCE 0xCC 0x4E EXTCODEHASH DUP6 PUSH5 0x736F6C6343 STOP ADDMOD SHR STOP CALLER "
				},
				"gasEstimates": {
					"creation": {
						"codeDepositCost": "738400",
						"executionCost": "infinite",
						"totalCost": "infinite"
					},
					"external": {
						"getTournamentDetails(uint256)": "infinite",
						"owner()": "2580",
						"renounceOwnership()": "infinite",
						"storeTournamentDetails(uint256,string,string,uint256,uint256)": "infinite",
						"tournamentsMap(uint256)": "infinite",
						"transferOwnership(address)": "infinite"
					}
				},
				"methodIdentifiers": {
					"getTournamentDetails(uint256)": "216655e2",
					"owner()": "8da5cb5b",
					"renounceOwnership()": "715018a6",
					"storeTournamentDetails(uint256,string,string,uint256,uint256)": "6825060c",
					"tournamentsMap(uint256)": "505858de",
					"transferOwnership(address)": "f2fde38b"
				}
			},
			"storageLayout": {
				"storage": [
					{
						"astId": 8,
						"contract": "contracts/TournamentResults.sol:tournamentResults",
						"label": "_owner",
						"offset": 0,
						"slot": "0",
						"type": "t_address"
					},
					{
						"astId": 198,
						"contract": "contracts/TournamentResults.sol:tournamentResults",
						"label": "tournamentsMap",
						"offset": 0,
						"slot": "1",
						"type": "t_mapping(t_uint256,t_struct(tournamentDetails)193_storage)"
					}
				],
				"types": {
					"t_address": {
						"encoding": "inplace",
						"label": "address",
						"numberOfBytes": "20"
					},
					"t_mapping(t_uint256,t_struct(tournamentDetails)193_storage)": {
						"encoding": "mapping",
						"key": "t_uint256",
						"label": "mapping(uint256 => struct tournamentResults.tournamentDetails)",
						"numberOfBytes": "32",
						"value": "t_struct(tournamentDetails)193_storage"
					},
					"t_string_storage": {
						"encoding": "bytes",
						"label": "string",
						"numberOfBytes": "32"
					},
					"t_struct(tournamentDetails)193_storage": {
						"encoding": "inplace",
						"label": "struct tournamentResults.tournamentDetails",
						"members": [
							{
								"astId": 184,
								"contract": "contracts/TournamentResults.sol:tournamentResults",
								"label": "id",
								"offset": 0,
								"slot": "0",
								"type": "t_uint256"
							},
							{
								"astId": 186,
								"contract": "contracts/TournamentResults.sol:tournamentResults",
								"label": "player1",
								"offset": 0,
								"slot": "1",
								"type": "t_string_storage"
							},
							{
								"astId": 188,
								"contract": "contracts/TournamentResults.sol:tournamentResults",
								"label": "player2",
								"offset": 0,
								"slot": "2",
								"type": "t_string_storage"
							},
							{
								"astId": 190,
								"contract": "contracts/TournamentResults.sol:tournamentResults",
								"label": "pointsPlayer1",
								"offset": 0,
								"slot": "3",
								"type": "t_uint256"
							},
							{
								"astId": 192,
								"contract": "contracts/TournamentResults.sol:tournamentResults",
								"label": "pointsPlayer2",
								"offset": 0,
								"slot": "4",
								"type": "t_uint256"
							}
						],
						"numberOfBytes": "160"
					},
					"t_uint256": {
						"encoding": "inplace",
						"label": "uint256",
						"numberOfBytes": "32"
					}
				}
			},
			"userdoc": {
				"kind": "user",
				"methods": {},
				"version": 1
			}
		}
	}
}